{
  "contractName": "LoanMaster",
  "abi": [
    {
      "constant": false,
      "inputs": [],
      "name": "renounceOwnership",
      "outputs": [],
      "payable": false,
      "stateMutability": "nonpayable",
      "type": "function"
    },
    {
      "constant": true,
      "inputs": [],
      "name": "owner",
      "outputs": [
        {
          "name": "",
          "type": "address"
        }
      ],
      "payable": false,
      "stateMutability": "view",
      "type": "function"
    },
    {
      "constant": true,
      "inputs": [],
      "name": "isOwner",
      "outputs": [
        {
          "name": "",
          "type": "bool"
        }
      ],
      "payable": false,
      "stateMutability": "view",
      "type": "function"
    },
    {
      "constant": true,
      "inputs": [],
      "name": "_creationFeePercentage",
      "outputs": [
        {
          "name": "",
          "type": "uint256"
        }
      ],
      "payable": false,
      "stateMutability": "view",
      "type": "function"
    },
    {
      "constant": true,
      "inputs": [],
      "name": "_token",
      "outputs": [
        {
          "name": "",
          "type": "address"
        }
      ],
      "payable": false,
      "stateMutability": "view",
      "type": "function"
    },
    {
      "constant": false,
      "inputs": [
        {
          "name": "newOwner",
          "type": "address"
        }
      ],
      "name": "transferOwnership",
      "outputs": [],
      "payable": false,
      "stateMutability": "nonpayable",
      "type": "function"
    },
    {
      "inputs": [],
      "payable": false,
      "stateMutability": "nonpayable",
      "type": "constructor"
    },
    {
      "anonymous": false,
      "inputs": [
        {
          "indexed": true,
          "name": "previousOwner",
          "type": "address"
        },
        {
          "indexed": true,
          "name": "newOwner",
          "type": "address"
        }
      ],
      "name": "OwnershipTransferred",
      "type": "event"
    },
    {
      "constant": false,
      "inputs": [
        {
          "name": "loanIdentifier",
          "type": "string"
        }
      ],
      "name": "getLoanTokenIds",
      "outputs": [
        {
          "name": "",
          "type": "uint256[]"
        }
      ],
      "payable": false,
      "stateMutability": "nonpayable",
      "type": "function"
    },
    {
      "constant": false,
      "inputs": [
        {
          "name": "originator",
          "type": "address"
        },
        {
          "name": "weiOfLoan",
          "type": "uint256"
        },
        {
          "name": "loanIdentifier",
          "type": "string"
        }
      ],
      "name": "createLoanToken",
      "outputs": [],
      "payable": true,
      "stateMutability": "payable",
      "type": "function"
    },
    {
      "constant": false,
      "inputs": [
        {
          "name": "loanIdentifier",
          "type": "string"
        }
      ],
      "name": "makeLoanPayment",
      "outputs": [],
      "payable": true,
      "stateMutability": "payable",
      "type": "function"
    }
  ],
  "bytecode": "0x6080604052600560025534801561001557600080fd5b50336000806101000a81548173ffffffffffffffffffffffffffffffffffffffff021916908373ffffffffffffffffffffffffffffffffffffffff1602179055506000809054906101000a900473ffffffffffffffffffffffffffffffffffffffff1673ffffffffffffffffffffffffffffffffffffffff16600073ffffffffffffffffffffffffffffffffffffffff167f8be0079c531659141344cd1fd0a4f28419497f9722a3daafe3b4186f6b6457e060405160405180910390a36100da61013c565b604051809103906000f0801580156100f6573d6000803e3d6000fd5b50600160006101000a81548173ffffffffffffffffffffffffffffffffffffffff021916908373ffffffffffffffffffffffffffffffffffffffff16021790555061014c565b6040516130f98061174183390190565b6115e68061015b6000396000f3fe608060405260043610610099576000357c0100000000000000000000000000000000000000000000000000000000900463ffffffff1680630c4c41f11461009e578063715018a6146101835780637900ded81461019a5780638da5cb5b146102b75780638f32d59b1461030e578063b7218e2f1461033d578063beb7028814610368578063ecd0c0c314610423578063f2fde38b1461047a575b600080fd5b610181600480360360608110156100b457600080fd5b81019080803573ffffffffffffffffffffffffffffffffffffffff16906020019092919080359060200190929190803590602001906401000000008111156100fb57600080fd5b82018360208201111561010d57600080fd5b8035906020019184600183028401116401000000008311171561012f57600080fd5b91908080601f016020809104026020016040519081016040528093929190818152602001838380828437600081840152601f19601f8201169050808301925050505050505091929192905050506104cb565b005b34801561018f57600080fd5b50610198610bf0565b005b3480156101a657600080fd5b50610260600480360360208110156101bd57600080fd5b81019080803590602001906401000000008111156101da57600080fd5b8201836020820111156101ec57600080fd5b8035906020019184600183028401116401000000008311171561020e57600080fd5b91908080601f016020809104026020016040519081016040528093929190818152602001838380828437600081840152601f19601f820116905080830192505050505050509192919290505050610cc2565b6040518080602001828103825283818151815260200191508051906020019060200280838360005b838110156102a3578082015181840152602081019050610288565b505050509050019250505060405180910390f35b3480156102c357600080fd5b506102cc610d85565b604051808273ffffffffffffffffffffffffffffffffffffffff1673ffffffffffffffffffffffffffffffffffffffff16815260200191505060405180910390f35b34801561031a57600080fd5b50610323610dae565b604051808215151515815260200191505060405180910390f35b34801561034957600080fd5b50610352610e05565b6040518082815260200191505060405180910390f35b6104216004803603602081101561037e57600080fd5b810190808035906020019064010000000081111561039b57600080fd5b8201836020820111156103ad57600080fd5b803590602001918460018302840111640100000000831117156103cf57600080fd5b91908080601f016020809104026020016040519081016040528093929190818152602001838380828437600081840152601f19601f820116905080830192505050505050509192919290505050610e0b565b005b34801561042f57600080fd5b506104386113f2565b604051808273ffffffffffffffffffffffffffffffffffffffff1673ffffffffffffffffffffffffffffffffffffffff16815260200191505060405180910390f35b34801561048657600080fd5b506104c96004803603602081101561049d57600080fd5b81019080803573ffffffffffffffffffffffffffffffffffffffff169060200190929190505050611418565b005b6104d3610dae565b15156104de57600080fd5b600061050860646104fa6002548661143790919063ffffffff16565b61147590919063ffffffff16565b9050600061051f828561149f90919063ffffffff16565b905060003373ffffffffffffffffffffffffffffffffffffffff163190508181101515156105db576040517f08c379a00000000000000000000000000000000000000000000000000000000081526004018080602001828103825260238152602001807f496e73756666696369656e742062616c616e636520746f20637265617465206c81526020017f6f616e000000000000000000000000000000000000000000000000000000000081525060400191505060405180910390fd5b813410151515610679576040517f08c379a00000000000000000000000000000000000000000000000000000000081526004018080602001828103825260258152602001807f496e73756666696369656e742076616c7565206f6e20746865207472616e736181526020017f6374696f6e00000000000000000000000000000000000000000000000000000081525060400191505060405180910390fd5b60006003856040518082805190602001908083835b6020831015156106b3578051825260208201915060208101905060208303925061068e565b6001836020036101000a038019825116818451168082178552505050505050905001915050908152602001604051809103902080549050111561090c576000600160009054906101000a900473ffffffffffffffffffffffffffffffffffffffff1673ffffffffffffffffffffffffffffffffffffffff1663e091b30d6003876040518082805190602001908083835b6020831015156107685780518252602082019150602081019050602083039250610743565b6001836020036101000a038019825116818451168082178552505050505050905001915050908152602001604051809103902060008154811015156107a957fe5b90600052602060002001546040518263ffffffff167c01000000000000000000000000000000000000000000000000000000000281526004018082815260200191505060206040518083038186803b15801561080457600080fd5b505afa158015610818573d6000803e3d6000fd5b505050506040513d602081101561082e57600080fd5b810190808051906020019092919050505090508673ffffffffffffffffffffffffffffffffffffffff168173ffffffffffffffffffffffffffffffffffffffff1614151561090a576040517f08c379a000000000000000000000000000000000000000000000000000000000815260040180806020018281038252602b8152602001807f54686572652063616e206f6e6c79206265206f6e6520756e646572777269746581526020017f72206f6e2061206c6f616e00000000000000000000000000000000000000000081525060400191505060405180910390fd5b505b6000600160009054906101000a900473ffffffffffffffffffffffffffffffffffffffff1673ffffffffffffffffffffffffffffffffffffffff1663d348bb00883389896040518563ffffffff167c0100000000000000000000000000000000000000000000000000000000028152600401808573ffffffffffffffffffffffffffffffffffffffff1673ffffffffffffffffffffffffffffffffffffffff1681526020018473ffffffffffffffffffffffffffffffffffffffff1673ffffffffffffffffffffffffffffffffffffffff16815260200183815260200180602001828103825283818151815260200191508051906020019080838360005b83811015610a25578082015181840152602081019050610a0a565b50505050905090810190601f168015610a525780820380516001836020036101000a031916815260200191505b5095505050505050602060405180830381600087803b158015610a7457600080fd5b505af1158015610a88573d6000803e3d6000fd5b505050506040513d6020811015610a9e57600080fd5b810190808051906020019092919050505090506003856040518082805190602001908083835b602083101515610ae95780518252602082019150602081019050602083039250610ac4565b6001836020036101000a03801982511681845116808217855250505050505090500191505090815260200160405180910390208190806001815401808255809150509060018203906000526020600020016000909192909190915055508673ffffffffffffffffffffffffffffffffffffffff166108fc879081150290604051600060405180830381858888f19350505050158015610b8c573d6000803e3d6000fd5b506000610b97610d85565b905060008190508073ffffffffffffffffffffffffffffffffffffffff166108fc879081150290604051600060405180830381858888f19350505050158015610be4573d6000803e3d6000fd5b50505050505050505050565b610bf8610dae565b1515610c0357600080fd5b600073ffffffffffffffffffffffffffffffffffffffff166000809054906101000a900473ffffffffffffffffffffffffffffffffffffffff1673ffffffffffffffffffffffffffffffffffffffff167f8be0079c531659141344cd1fd0a4f28419497f9722a3daafe3b4186f6b6457e060405160405180910390a360008060006101000a81548173ffffffffffffffffffffffffffffffffffffffff021916908373ffffffffffffffffffffffffffffffffffffffff160217905550565b60606003826040518082805190602001908083835b602083101515610cfc5780518252602082019150602081019050602083039250610cd7565b6001836020036101000a0380198251168184511680821785525050505050509050019150509081526020016040518091039020805480602002602001604051908101604052809291908181526020018280548015610d7957602002820191906000526020600020905b815481526020019060010190808311610d65575b50505050509050919050565b60008060009054906101000a900473ffffffffffffffffffffffffffffffffffffffff16905090565b60008060009054906101000a900473ffffffffffffffffffffffffffffffffffffffff1673ffffffffffffffffffffffffffffffffffffffff163373ffffffffffffffffffffffffffffffffffffffff1614905090565b60025481565b60606003826040518082805190602001908083835b602083101515610e455780518252602082019150602081019050602083039250610e20565b6001836020036101000a0380198251168184511680821785525050505050509050019150509081526020016040518091039020805480602002602001604051908101604052809291908181526020018280548015610ec257602002820191906000526020600020905b815481526020019060010190808311610eae575b5050505050905060008151111515610f68576040517f08c379a00000000000000000000000000000000000000000000000000000000081526004018080602001828103825260238152602001807f4e6f20746f6b656e73206173736f63696174656420776974682074686973206c81526020017f6f616e000000000000000000000000000000000000000000000000000000000081525060400191505060405180910390fd5b6000600160009054906101000a900473ffffffffffffffffffffffffffffffffffffffff1673ffffffffffffffffffffffffffffffffffffffff1663e091b30d836000815181101515610fb757fe5b906020019060200201516040518263ffffffff167c01000000000000000000000000000000000000000000000000000000000281526004018082815260200191505060206040518083038186803b15801561101157600080fd5b505afa158015611025573d6000803e3d6000fd5b505050506040513d602081101561103b57600080fd5b810190808051906020019092919050505090503373ffffffffffffffffffffffffffffffffffffffff168173ffffffffffffffffffffffffffffffffffffffff16141515611117576040517f08c379a00000000000000000000000000000000000000000000000000000000081526004018080602001828103825260298152602001807f4f6e6c792074686520756e6465727772697465722063616e20706179206f666681526020017f20746865206c6f616e000000000000000000000000000000000000000000000081525060400191505060405180910390fd5b60008090505b82518110156113ec576000838281518110151561113657fe5b9060200190602002015190506000600160009054906101000a900473ffffffffffffffffffffffffffffffffffffffff1673ffffffffffffffffffffffffffffffffffffffff16636352211e836040518263ffffffff167c01000000000000000000000000000000000000000000000000000000000281526004018082815260200191505060206040518083038186803b1580156111d357600080fd5b505afa1580156111e7573d6000803e3d6000fd5b505050506040513d60208110156111fd57600080fd5b8101908080519060200190929190505050905060008190506000600160009054906101000a900473ffffffffffffffffffffffffffffffffffffffff1673ffffffffffffffffffffffffffffffffffffffff16636ab56682856040518263ffffffff167c01000000000000000000000000000000000000000000000000000000000281526004018082815260200191505060206040518083038186803b1580156112a657600080fd5b505afa1580156112ba573d6000803e3d6000fd5b505050506040513d60208110156112d057600080fd5b81019080805190602001909291905050509050600160009054906101000a900473ffffffffffffffffffffffffffffffffffffffff1673ffffffffffffffffffffffffffffffffffffffff16631822948482866040518363ffffffff167c01000000000000000000000000000000000000000000000000000000000281526004018083815260200182815260200192505050600060405180830381600087803b15801561137c57600080fd5b505af1158015611390573d6000803e3d6000fd5b505050508173ffffffffffffffffffffffffffffffffffffffff166108fc829081150290604051600060405180830381858888f193505050501580156113da573d6000803e3d6000fd5b5050505050808060010191505061111d565b50505050565b600160009054906101000a900473ffffffffffffffffffffffffffffffffffffffff1681565b611420610dae565b151561142b57600080fd5b611434816114c0565b50565b60008083141561144a576000905061146f565b6000828402905082848281151561145d57fe5b0414151561146a57600080fd5b809150505b92915050565b6000808211151561148557600080fd5b6000828481151561149257fe5b0490508091505092915050565b60008082840190508381101515156114b657600080fd5b8091505092915050565b600073ffffffffffffffffffffffffffffffffffffffff168173ffffffffffffffffffffffffffffffffffffffff16141515156114fc57600080fd5b8073ffffffffffffffffffffffffffffffffffffffff166000809054906101000a900473ffffffffffffffffffffffffffffffffffffffff1673ffffffffffffffffffffffffffffffffffffffff167f8be0079c531659141344cd1fd0a4f28419497f9722a3daafe3b4186f6b6457e060405160405180910390a3806000806101000a81548173ffffffffffffffffffffffffffffffffffffffff021916908373ffffffffffffffffffffffffffffffffffffffff1602179055505056fea165627a7a723058201e59d4763005a5bebf0c7ff4673ab99b25dcabd7d2587d6cc35a90511cc3416a002960806040523480156200001157600080fd5b506040805190810160405280600981526020017f4865726f546f6b656e00000000000000000000000000000000000000000000008152506040805190810160405280600381526020017f484c5400000000000000000000000000000000000000000000000000000000008152508181620000bd6301ffc9a77c01000000000000000000000000000000000000000000000000000000000262000288640100000000026401000000009004565b620000fa6380ac58cd7c01000000000000000000000000000000000000000000000000000000000262000288640100000000026401000000009004565b6200013763780e9d637c01000000000000000000000000000000000000000000000000000000000262000288640100000000026401000000009004565b81600990805190602001906200014f92919062000508565b5080600a90805190602001906200016892919062000508565b50620001a6635b5e139f7c01000000000000000000000000000000000000000000000000000000000262000288640100000000026401000000009004565b50505050620001c43362000346640100000000026401000000009004565b33600d60006101000a81548173ffffffffffffffffffffffffffffffffffffffff021916908373ffffffffffffffffffffffffffffffffffffffff160217905550600d60009054906101000a900473ffffffffffffffffffffffffffffffffffffffff1673ffffffffffffffffffffffffffffffffffffffff16600073ffffffffffffffffffffffffffffffffffffffff167f8be0079c531659141344cd1fd0a4f28419497f9722a3daafe3b4186f6b6457e060405160405180910390a3620005b7565b63ffffffff7c010000000000000000000000000000000000000000000000000000000002817bffffffffffffffffffffffffffffffffffffffffffffffffffffffff191614151515620002da57600080fd5b6001600080837bffffffffffffffffffffffffffffffffffffffffffffffffffffffff19167bffffffffffffffffffffffffffffffffffffffffffffffffffffffff1916815260200190815260200160002060006101000a81548160ff02191690831515021790555050565b6200036a81600c620003b0640100000000026200278b179091906401000000009004565b8073ffffffffffffffffffffffffffffffffffffffff167f6ae172837ea30b801fbfcdd4108aa1d5bf8ff775444fd70256b44e6bf3dfc3f660405160405180910390a250565b600073ffffffffffffffffffffffffffffffffffffffff168173ffffffffffffffffffffffffffffffffffffffff1614151515620003ed57600080fd5b62000408828262000473640100000000026401000000009004565b1515156200041557600080fd5b60018260000160008373ffffffffffffffffffffffffffffffffffffffff1673ffffffffffffffffffffffffffffffffffffffff16815260200190815260200160002060006101000a81548160ff0219169083151502179055505050565b60008073ffffffffffffffffffffffffffffffffffffffff168273ffffffffffffffffffffffffffffffffffffffff1614151515620004b157600080fd5b8260000160008373ffffffffffffffffffffffffffffffffffffffff1673ffffffffffffffffffffffffffffffffffffffff16815260200190815260200160002060009054906101000a900460ff16905092915050565b828054600181600116156101000203166002900490600052602060002090601f016020900481019282601f106200054b57805160ff19168380011785556200057c565b828001600101855582156200057c579182015b828111156200057b5782518255916020019190600101906200055e565b5b5090506200058b91906200058f565b5090565b620005b491905b80821115620005b057600081600090555060010162000596565b5090565b90565b612b3280620005c76000396000f3fe60806040526004361061016a576000357c0100000000000000000000000000000000000000000000000000000000900463ffffffff16806301ffc9a71461016f57806306fdde03146101e1578063081812fc14610271578063095ea7b3146102ec57806318160ddd14610347578063182294841461037257806323b872dd146103b75780632f745c591461043257806340c10f19146104a157806342842e0e146105145780634f6ccce71461058f5780636352211e146105de5780636ab566821461065957806370a08231146106a8578063715018a61461070d5780638da5cb5b146107245780638f32d59b1461077b57806395d89b41146107aa578063983b2d561461083a578063986502751461088b578063a22cb465146108a2578063aa271e1a146108ff578063b88d4fde14610968578063c87b56dd14610a7a578063d348bb0014610b2e578063e091b30d14610c54578063e985e9c514610ccf578063f2fde38b14610d58575b600080fd5b34801561017b57600080fd5b506101c76004803603602081101561019257600080fd5b8101908080357bffffffffffffffffffffffffffffffffffffffffffffffffffffffff19169060200190929190505050610da9565b604051808215151515815260200191505060405180910390f35b3480156101ed57600080fd5b506101f6610e10565b6040518080602001828103825283818151815260200191508051906020019080838360005b8381101561023657808201518184015260208101905061021b565b50505050905090810190601f1680156102635780820380516001836020036101000a031916815260200191505b509250505060405180910390f35b34801561027d57600080fd5b506102aa6004803603602081101561029457600080fd5b8101908080359060200190929190505050610eb2565b604051808273ffffffffffffffffffffffffffffffffffffffff1673ffffffffffffffffffffffffffffffffffffffff16815260200191505060405180910390f35b3480156102f857600080fd5b506103456004803603604081101561030f57600080fd5b81019080803573ffffffffffffffffffffffffffffffffffffffff16906020019092919080359060200190929190505050610f03565b005b34801561035357600080fd5b5061035c611048565b6040518082815260200191505060405180910390f35b34801561037e57600080fd5b506103b56004803603604081101561039557600080fd5b810190808035906020019092919080359060200190929190505050611055565b005b3480156103c357600080fd5b50610430600480360360608110156103da57600080fd5b81019080803573ffffffffffffffffffffffffffffffffffffffff169060200190929190803573ffffffffffffffffffffffffffffffffffffffff1690602001909291908035906020019092919050505061111c565b005b34801561043e57600080fd5b5061048b6004803603604081101561045557600080fd5b81019080803573ffffffffffffffffffffffffffffffffffffffff16906020019092919080359060200190929190505050611141565b6040518082815260200191505060405180910390f35b3480156104ad57600080fd5b506104fa600480360360408110156104c457600080fd5b81019080803573ffffffffffffffffffffffffffffffffffffffff169060200190929190803590602001909291905050506111b8565b604051808215151515815260200191505060405180910390f35b34801561052057600080fd5b5061058d6004803603606081101561053757600080fd5b81019080803573ffffffffffffffffffffffffffffffffffffffff169060200190929190803573ffffffffffffffffffffffffffffffffffffffff169060200190929190803590602001909291905050506111e2565b005b34801561059b57600080fd5b506105c8600480360360208110156105b257600080fd5b8101908080359060200190929190505050611203565b6040518082815260200191505060405180910390f35b3480156105ea57600080fd5b506106176004803603602081101561060157600080fd5b810190808035906020019092919050505061123b565b604051808273ffffffffffffffffffffffffffffffffffffffff1673ffffffffffffffffffffffffffffffffffffffff16815260200191505060405180910390f35b34801561066557600080fd5b506106926004803603602081101561067c57600080fd5b81019080803590602001909291905050506112b9565b6040518082815260200191505060405180910390f35b3480156106b457600080fd5b506106f7600480360360208110156106cb57600080fd5b81019080803573ffffffffffffffffffffffffffffffffffffffff16906020019092919050505061137b565b6040518082815260200191505060405180910390f35b34801561071957600080fd5b506107226113ff565b005b34801561073057600080fd5b506107396114d3565b604051808273ffffffffffffffffffffffffffffffffffffffff1673ffffffffffffffffffffffffffffffffffffffff16815260200191505060405180910390f35b34801561078757600080fd5b506107906114fd565b604051808215151515815260200191505060405180910390f35b3480156107b657600080fd5b506107bf611555565b6040518080602001828103825283818151815260200191508051906020019080838360005b838110156107ff5780820151818401526020810190506107e4565b50505050905090810190601f16801561082c5780820380516001836020036101000a031916815260200191505b509250505060405180910390f35b34801561084657600080fd5b506108896004803603602081101561085d57600080fd5b81019080803573ffffffffffffffffffffffffffffffffffffffff1690602001909291905050506115f7565b005b34801561089757600080fd5b506108a0611617565b005b3480156108ae57600080fd5b506108fd600480360360408110156108c557600080fd5b81019080803573ffffffffffffffffffffffffffffffffffffffff169060200190929190803515159060200190929190505050611622565b005b34801561090b57600080fd5b5061094e6004803603602081101561092257600080fd5b81019080803573ffffffffffffffffffffffffffffffffffffffff16906020019092919050505061175e565b604051808215151515815260200191505060405180910390f35b34801561097457600080fd5b50610a786004803603608081101561098b57600080fd5b81019080803573ffffffffffffffffffffffffffffffffffffffff169060200190929190803573ffffffffffffffffffffffffffffffffffffffff16906020019092919080359060200190929190803590602001906401000000008111156109f257600080fd5b820183602082011115610a0457600080fd5b80359060200191846001830284011164010000000083111715610a2657600080fd5b91908080601f016020809104026020016040519081016040528093929190818152602001838380828437600081840152601f19601f82011690508083019250505050505050919291929050505061177b565b005b348015610a8657600080fd5b50610ab360048036036020811015610a9d57600080fd5b81019080803590602001909291905050506117a3565b6040518080602001828103825283818151815260200191508051906020019080838360005b83811015610af3578082015181840152602081019050610ad8565b50505050905090810190601f168015610b205780820380516001836020036101000a031916815260200191505b509250505060405180910390f35b348015610b3a57600080fd5b50610c3e60048036036080811015610b5157600080fd5b81019080803573ffffffffffffffffffffffffffffffffffffffff169060200190929190803573ffffffffffffffffffffffffffffffffffffffff1690602001909291908035906020019092919080359060200190640100000000811115610bb857600080fd5b820183602082011115610bca57600080fd5b80359060200191846001830284011164010000000083111715610bec57600080fd5b91908080601f016020809104026020016040519081016040528093929190818152602001838380828437600081840152601f19601f82011690508083019250505050505050919291929050505061186c565b6040518082815260200191505060405180910390f35b348015610c6057600080fd5b50610c8d60048036036020811015610c7757600080fd5b8101908080359060200190929190505050611968565b604051808273ffffffffffffffffffffffffffffffffffffffff1673ffffffffffffffffffffffffffffffffffffffff16815260200191505060405180910390f35b348015610cdb57600080fd5b50610d3e60048036036040811015610cf257600080fd5b81019080803573ffffffffffffffffffffffffffffffffffffffff169060200190929190803573ffffffffffffffffffffffffffffffffffffffff169060200190929190505050611a14565b604051808215151515815260200191505060405180910390f35b348015610d6457600080fd5b50610da760048036036020811015610d7b57600080fd5b81019080803573ffffffffffffffffffffffffffffffffffffffff169060200190929190505050611aa8565b005b6000806000837bffffffffffffffffffffffffffffffffffffffffffffffffffffffff19167bffffffffffffffffffffffffffffffffffffffffffffffffffffffff1916815260200190815260200160002060009054906101000a900460ff169050919050565b606060098054600181600116156101000203166002900480601f016020809104026020016040519081016040528092919081815260200182805460018160011615610100020316600290048015610ea85780601f10610e7d57610100808354040283529160200191610ea8565b820191906000526020600020905b815481529060010190602001808311610e8b57829003601f168201915b5050505050905090565b6000610ebd82611ac7565b1515610ec857600080fd5b6002600083815260200190815260200160002060009054906101000a900473ffffffffffffffffffffffffffffffffffffffff169050919050565b6000610f0e8261123b565b90508073ffffffffffffffffffffffffffffffffffffffff168373ffffffffffffffffffffffffffffffffffffffff1614151515610f4b57600080fd5b8073ffffffffffffffffffffffffffffffffffffffff163373ffffffffffffffffffffffffffffffffffffffff161480610f8b5750610f8a8133611a14565b5b1515610f9657600080fd5b826002600084815260200190815260200160002060006101000a81548173ffffffffffffffffffffffffffffffffffffffff021916908373ffffffffffffffffffffffffffffffffffffffff160217905550818373ffffffffffffffffffffffffffffffffffffffff168273ffffffffffffffffffffffffffffffffffffffff167f8c5be1e5ebec7d5bd14f71427d1e84f3dd0314c0f7b2291e5b200ac8c7c3b92560405160405180910390a4505050565b6000600780549050905090565b6000600e8281548110151561106657fe5b90600052602060002090600302019050600061108f848360010154611b3990919063ffffffff16565b90508160000154811115151561110d576040517f08c379a00000000000000000000000000000000000000000000000000000000081526004018080602001828103825260138152602001807f43616e6e6f74206f766572706179206c6f616e0000000000000000000000000081525060200191505060405180910390fd5b80826001018190555050505050565b6111263382611b5a565b151561113157600080fd5b61113c838383611bef565b505050565b600061114c8361137b565b8210151561115957600080fd5b600560008473ffffffffffffffffffffffffffffffffffffffff1673ffffffffffffffffffffffffffffffffffffffff168152602001908152602001600020828154811015156111a557fe5b9060005260206000200154905092915050565b60006111c33361175e565b15156111ce57600080fd5b6111d88383611c13565b6001905092915050565b6111fe838383602060405190810160405280600081525061177b565b505050565b600061120d611048565b8210151561121a57600080fd5b60078281548110151561122957fe5b90600052602060002001549050919050565b6000806001600084815260200190815260200160002060009054906101000a900473ffffffffffffffffffffffffffffffffffffffff169050600073ffffffffffffffffffffffffffffffffffffffff168173ffffffffffffffffffffffffffffffffffffffff16141515156112b057600080fd5b80915050919050565b60006112c36129fd565b600e838154811015156112d257fe5b90600052602060002090600302016060604051908101604052908160008201548152602001600182015481526020016002820160009054906101000a900473ffffffffffffffffffffffffffffffffffffffff1673ffffffffffffffffffffffffffffffffffffffff1673ffffffffffffffffffffffffffffffffffffffff1681525050905061137381602001518260000151611c3490919063ffffffff16565b915050919050565b60008073ffffffffffffffffffffffffffffffffffffffff168273ffffffffffffffffffffffffffffffffffffffff16141515156113b857600080fd5b600360008373ffffffffffffffffffffffffffffffffffffffff1673ffffffffffffffffffffffffffffffffffffffff168152602001908152602001600020549050919050565b6114076114fd565b151561141257600080fd5b600073ffffffffffffffffffffffffffffffffffffffff16600d60009054906101000a900473ffffffffffffffffffffffffffffffffffffffff1673ffffffffffffffffffffffffffffffffffffffff167f8be0079c531659141344cd1fd0a4f28419497f9722a3daafe3b4186f6b6457e060405160405180910390a36000600d60006101000a81548173ffffffffffffffffffffffffffffffffffffffff021916908373ffffffffffffffffffffffffffffffffffffffff160217905550565b6000600d60009054906101000a900473ffffffffffffffffffffffffffffffffffffffff16905090565b6000600d60009054906101000a900473ffffffffffffffffffffffffffffffffffffffff1673ffffffffffffffffffffffffffffffffffffffff163373ffffffffffffffffffffffffffffffffffffffff1614905090565b6060600a8054600181600116156101000203166002900480601f0160208091040260200160405190810160405280929190818152602001828054600181600116156101000203166002900480156115ed5780601f106115c2576101008083540402835291602001916115ed565b820191906000526020600020905b8154815290600101906020018083116115d057829003601f168201915b5050505050905090565b6116003361175e565b151561160b57600080fd5b61161481611c56565b50565b61162033611cb0565b565b3373ffffffffffffffffffffffffffffffffffffffff168273ffffffffffffffffffffffffffffffffffffffff161415151561165d57600080fd5b80600460003373ffffffffffffffffffffffffffffffffffffffff1673ffffffffffffffffffffffffffffffffffffffff16815260200190815260200160002060008473ffffffffffffffffffffffffffffffffffffffff1673ffffffffffffffffffffffffffffffffffffffff16815260200190815260200160002060006101000a81548160ff0219169083151502179055508173ffffffffffffffffffffffffffffffffffffffff163373ffffffffffffffffffffffffffffffffffffffff167f17307eab39ab6107e8899845ad3d59bd9653f200f220920489ca2b5937696c3183604051808215151515815260200191505060405180910390a35050565b600061177482600c611d0a90919063ffffffff16565b9050919050565b61178684848461111c565b61179284848484611d9e565b151561179d57600080fd5b50505050565b60606117ae82611ac7565b15156117b957600080fd5b600b60008381526020019081526020016000208054600181600116156101000203166002900480601f0160208091040260200160405190810160405280929190818152602001828054600181600116156101000203166002900480156118605780601f1061183557610100808354040283529160200191611860565b820191906000526020600020905b81548152906001019060200180831161184357829003601f168201915b50505050509050919050565b60006118766114fd565b151561188157600080fd5b6118896129fd565b606060405190810160405280858152602001600081526020018773ffffffffffffffffffffffffffffffffffffffff16815250905060006001600e8390806001815401808255809150509060018203906000526020600020906003020160009091929091909150600082015181600001556020820151816001015560408201518160020160006101000a81548173ffffffffffffffffffffffffffffffffffffffff021916908373ffffffffffffffffffffffffffffffffffffffff160217905550505003905061195b868286611fc1565b8092505050949350505050565b60006119726129fd565b600e8381548110151561198157fe5b90600052602060002090600302016060604051908101604052908160008201548152602001600182015481526020016002820160009054906101000a900473ffffffffffffffffffffffffffffffffffffffff1673ffffffffffffffffffffffffffffffffffffffff1673ffffffffffffffffffffffffffffffffffffffff168152505090508060400151915050919050565b6000600460008473ffffffffffffffffffffffffffffffffffffffff1673ffffffffffffffffffffffffffffffffffffffff16815260200190815260200160002060008373ffffffffffffffffffffffffffffffffffffffff1673ffffffffffffffffffffffffffffffffffffffff16815260200190815260200160002060009054906101000a900460ff16905092915050565b611ab06114fd565b1515611abb57600080fd5b611ac481611fda565b50565b6000806001600084815260200190815260200160002060009054906101000a900473ffffffffffffffffffffffffffffffffffffffff169050600073ffffffffffffffffffffffffffffffffffffffff168173ffffffffffffffffffffffffffffffffffffffff161415915050919050565b6000808284019050838110151515611b5057600080fd5b8091505092915050565b600080611b668361123b565b90508073ffffffffffffffffffffffffffffffffffffffff168473ffffffffffffffffffffffffffffffffffffffff161480611bd557508373ffffffffffffffffffffffffffffffffffffffff16611bbd84610eb2565b73ffffffffffffffffffffffffffffffffffffffff16145b80611be65750611be58185611a14565b5b91505092915050565b611bfa8383836120d6565b611c04838261233b565b611c0e82826124df565b505050565b611c1d82826125a6565b611c2782826124df565b611c308161273f565b5050565b6000828211151515611c4557600080fd5b600082840390508091505092915050565b611c6a81600c61278b90919063ffffffff16565b8073ffffffffffffffffffffffffffffffffffffffff167f6ae172837ea30b801fbfcdd4108aa1d5bf8ff775444fd70256b44e6bf3dfc3f660405160405180910390a250565b611cc481600c61283b90919063ffffffff16565b8073ffffffffffffffffffffffffffffffffffffffff167fe94479a9f7e1952cc78f2d6baab678adc1b772d936c6583def489e524cb6669260405160405180910390a250565b60008073ffffffffffffffffffffffffffffffffffffffff168273ffffffffffffffffffffffffffffffffffffffff1614151515611d4757600080fd5b8260000160008373ffffffffffffffffffffffffffffffffffffffff1673ffffffffffffffffffffffffffffffffffffffff16815260200190815260200160002060009054906101000a900460ff16905092915050565b6000611dbf8473ffffffffffffffffffffffffffffffffffffffff166128ea565b1515611dce5760019050611fb9565b60008473ffffffffffffffffffffffffffffffffffffffff1663150b7a02338887876040518563ffffffff167c0100000000000000000000000000000000000000000000000000000000028152600401808573ffffffffffffffffffffffffffffffffffffffff1673ffffffffffffffffffffffffffffffffffffffff1681526020018473ffffffffffffffffffffffffffffffffffffffff1673ffffffffffffffffffffffffffffffffffffffff16815260200183815260200180602001828103825283818151815260200191508051906020019080838360005b83811015611ec5578082015181840152602081019050611eaa565b50505050905090810190601f168015611ef25780820380516001836020036101000a031916815260200191505b5095505050505050602060405180830381600087803b158015611f1457600080fd5b505af1158015611f28573d6000803e3d6000fd5b505050506040513d6020811015611f3e57600080fd5b8101908080519060200190929190505050905063150b7a027c0100000000000000000000000000000000000000000000000000000000027bffffffffffffffffffffffffffffffffffffffffffffffffffffffff1916817bffffffffffffffffffffffffffffffffffffffffffffffffffffffff1916149150505b949350505050565b611fcb8383611c13565b611fd582826128fd565b505050565b600073ffffffffffffffffffffffffffffffffffffffff168173ffffffffffffffffffffffffffffffffffffffff161415151561201657600080fd5b8073ffffffffffffffffffffffffffffffffffffffff16600d60009054906101000a900473ffffffffffffffffffffffffffffffffffffffff1673ffffffffffffffffffffffffffffffffffffffff167f8be0079c531659141344cd1fd0a4f28419497f9722a3daafe3b4186f6b6457e060405160405180910390a380600d60006101000a81548173ffffffffffffffffffffffffffffffffffffffff021916908373ffffffffffffffffffffffffffffffffffffffff16021790555050565b8273ffffffffffffffffffffffffffffffffffffffff166120f68261123b565b73ffffffffffffffffffffffffffffffffffffffff1614151561211857600080fd5b600073ffffffffffffffffffffffffffffffffffffffff168273ffffffffffffffffffffffffffffffffffffffff161415151561215457600080fd5b61215d8161293d565b6121b06001600360008673ffffffffffffffffffffffffffffffffffffffff1673ffffffffffffffffffffffffffffffffffffffff16815260200190815260200160002054611c3490919063ffffffff16565b600360008573ffffffffffffffffffffffffffffffffffffffff1673ffffffffffffffffffffffffffffffffffffffff168152602001908152602001600020819055506122466001600360008573ffffffffffffffffffffffffffffffffffffffff1673ffffffffffffffffffffffffffffffffffffffff16815260200190815260200160002054611b3990919063ffffffff16565b600360008473ffffffffffffffffffffffffffffffffffffffff1673ffffffffffffffffffffffffffffffffffffffff16815260200190815260200160002081905550816001600083815260200190815260200160002060006101000a81548173ffffffffffffffffffffffffffffffffffffffff021916908373ffffffffffffffffffffffffffffffffffffffff160217905550808273ffffffffffffffffffffffffffffffffffffffff168473ffffffffffffffffffffffffffffffffffffffff167fddf252ad1be2c89b69c2b068fc378daa952ba7f163c4a11628f55a4df523b3ef60405160405180910390a4505050565b60006123936001600560008673ffffffffffffffffffffffffffffffffffffffff1673ffffffffffffffffffffffffffffffffffffffff16815260200190815260200160002080549050611c3490919063ffffffff16565b90506000600660008481526020019081526020016000205490508181141515612486576000600560008673ffffffffffffffffffffffffffffffffffffffff1673ffffffffffffffffffffffffffffffffffffffff1681526020019081526020016000208381548110151561240457fe5b9060005260206000200154905080600560008773ffffffffffffffffffffffffffffffffffffffff1673ffffffffffffffffffffffffffffffffffffffff1681526020019081526020016000208381548110151561245e57fe5b9060005260206000200181905550816006600083815260200190815260200160002081905550505b600560008573ffffffffffffffffffffffffffffffffffffffff1673ffffffffffffffffffffffffffffffffffffffff1681526020019081526020016000208054809190600190036124d89190612a35565b5050505050565b600560008373ffffffffffffffffffffffffffffffffffffffff1673ffffffffffffffffffffffffffffffffffffffff168152602001908152602001600020805490506006600083815260200190815260200160002081905550600560008373ffffffffffffffffffffffffffffffffffffffff1673ffffffffffffffffffffffffffffffffffffffff1681526020019081526020016000208190806001815401808255809150509060018203906000526020600020016000909192909190915055505050565b600073ffffffffffffffffffffffffffffffffffffffff168273ffffffffffffffffffffffffffffffffffffffff16141515156125e257600080fd5b6125eb81611ac7565b1515156125f757600080fd5b816001600083815260200190815260200160002060006101000a81548173ffffffffffffffffffffffffffffffffffffffff021916908373ffffffffffffffffffffffffffffffffffffffff16021790555061269c6001600360008573ffffffffffffffffffffffffffffffffffffffff1673ffffffffffffffffffffffffffffffffffffffff16815260200190815260200160002054611b3990919063ffffffff16565b600360008473ffffffffffffffffffffffffffffffffffffffff1673ffffffffffffffffffffffffffffffffffffffff16815260200190815260200160002081905550808273ffffffffffffffffffffffffffffffffffffffff16600073ffffffffffffffffffffffffffffffffffffffff167fddf252ad1be2c89b69c2b068fc378daa952ba7f163c4a11628f55a4df523b3ef60405160405180910390a45050565b6007805490506008600083815260200190815260200160002081905550600781908060018154018082558091505090600182039060005260206000200160009091929091909150555050565b600073ffffffffffffffffffffffffffffffffffffffff168173ffffffffffffffffffffffffffffffffffffffff16141515156127c757600080fd5b6127d18282611d0a565b1515156127dd57600080fd5b60018260000160008373ffffffffffffffffffffffffffffffffffffffff1673ffffffffffffffffffffffffffffffffffffffff16815260200190815260200160002060006101000a81548160ff0219169083151502179055505050565b600073ffffffffffffffffffffffffffffffffffffffff168173ffffffffffffffffffffffffffffffffffffffff161415151561287757600080fd5b6128818282611d0a565b151561288c57600080fd5b60008260000160008373ffffffffffffffffffffffffffffffffffffffff1673ffffffffffffffffffffffffffffffffffffffff16815260200190815260200160002060006101000a81548160ff0219169083151502179055505050565b600080823b905060008111915050919050565b61290682611ac7565b151561291157600080fd5b80600b60008481526020019081526020016000209080519060200190612938929190612a61565b505050565b600073ffffffffffffffffffffffffffffffffffffffff166002600083815260200190815260200160002060009054906101000a900473ffffffffffffffffffffffffffffffffffffffff1673ffffffffffffffffffffffffffffffffffffffff161415156129fa5760006002600083815260200190815260200160002060006101000a81548173ffffffffffffffffffffffffffffffffffffffff021916908373ffffffffffffffffffffffffffffffffffffffff1602179055505b50565b6060604051908101604052806000815260200160008152602001600073ffffffffffffffffffffffffffffffffffffffff1681525090565b815481835581811115612a5c57818360005260206000209182019101612a5b9190612ae1565b5b505050565b828054600181600116156101000203166002900490600052602060002090601f016020900481019282601f10612aa257805160ff1916838001178555612ad0565b82800160010185558215612ad0579182015b82811115612acf578251825591602001919060010190612ab4565b5b509050612add9190612ae1565b5090565b612b0391905b80821115612aff576000816000905550600101612ae7565b5090565b9056fea165627a7a72305820f108ff4bbd9cd568ec3658b9e51ac2478694b999c2f484450721cf67128009500029",
  "source": "pragma solidity ^0.5.0;\n\nimport \"openzeppelin-solidity/contracts/ownership/Ownable.sol\";\nimport \"openzeppelin-solidity/contracts/math/SafeMath.sol\";\nimport \"./LoanToken.sol\";\n\ncontract LoanMaster is Ownable {\n    using SafeMath for uint256;\n    LoanToken public _token;\n\n    // TODO: Determine a reasonable fee here\n    uint256 public _creationFeePercentage = 5;\n\n    // We represent our loans by their identifier & associated tokenIds\n    mapping(string => uint256[]) private _loans;\n\n    constructor() public {\n        // NB: Making this contract the owner of the token might not be the best idea,\n        // as it will limit control over the ERC721 contract unless we expose all the interfaces here\n        // Something to decide as a team\n        _token = new LoanToken();\n    }\n\n    function getLoanTokenIds(string memory loanIdentifier) public returns (uint256[] memory) {\n        return _loans[loanIdentifier];\n    }\n\n    function createLoanToken(\n        address payable originator,\n        uint256 weiOfLoan,\n        string memory loanIdentifier\n    ) public payable onlyOwner {\n        // Solidity does not support floating point numbers, hence the uint256\n        // data type and multiplying by the fee percent then diving by 100\n        uint256 fee = weiOfLoan.mul(_creationFeePercentage).div(100);\n        uint256 loanAndFee = weiOfLoan.add(fee);\n        \n        // Validate the loaner has enough balance\n        uint256 lenderBalance = msg.sender.balance;\n        require(lenderBalance >= loanAndFee, \"Insufficient balance to create loan\");\n        require(msg.value >= loanAndFee, \"Insufficient value on the transaction\");\n\n        // Validate if a loan already exists that we keep the originator the same\n        if (_loans[loanIdentifier].length > 0) {\n            address currentoriginator = _token.getLoanoriginator(_loans[loanIdentifier][0]);\n            require(currentoriginator == originator, \"There can only be one originator on a loan\");\n        }\n\n        uint256 tokenId = _token.createLoanToken(originator, msg.sender, weiOfLoan, loanIdentifier);\n        _loans[loanIdentifier].push(tokenId);\n\n        originator.transfer(weiOfLoan);\n\n        address owner = owner();\n        address payable payableOwner = address(uint160(owner));\n        payableOwner.transfer(fee);\n    }\n\n    // MVP: Pay off the entire loan\n    // You could certainly create some methods that allowed for partial repayment\n    function makeLoanPayment(string memory loanIdentifier) public payable {\n        uint256[] memory loanIds = _loans[loanIdentifier];\n        require(loanIds.length > 0, \"No tokens associated with this loan\");\n\n        // We know that the originator for each loan token under an identifier is that\n        // same as its enforce in the createLoanToken method\n        address originator = _token.getLoanoriginator(loanIds[0]);\n        require(originator == msg.sender, \"Only the originator can pay off the loan\");\n\n        // We will only do this loop once. The DApp will need to determine the payable\n        // balance remaining, to keep gas reasonable\n        for (uint256 i = 0; i < loanIds.length; i++) {\n            uint256 loanId = loanIds[i];\n            address ownerOfLoanToken = _token.ownerOf(loanId);\n\n            // This is the required casting to get a payable address from a standard address\n            address payable payableOwner = address(uint160(ownerOfLoanToken));\n            uint256 repaymentRemaining = _token.repaymentRemaining(loanId);\n\n            _token.repaymentMade(repaymentRemaining, loanId);\n            payableOwner.transfer(repaymentRemaining);\n        }\n    }\n}\n",
  "sourcePath": "/home/sam/Projects/loan-token-smart-contract/contracts/LoanMaster.sol",
  "compiler": {
    "name": "solc",
    "version": "0.5.0+commit.1d4f565a.Emscripten.clang"
  },
  "schemaVersion": "3.0.2",
  "updatedAt": "2019-02-20T11:04:18.847Z",
  "devdoc": {
    "methods": {
      "isOwner()": {
        "return": "true if `msg.sender` is the owner of the contract."
      },
      "owner()": {
        "return": "the address of the owner."
      },
      "renounceOwnership()": {
        "details": "Allows the current owner to relinquish control of the contract."
      },
      "transferOwnership(address)": {
        "details": "Allows the current owner to transfer control of the contract to a newOwner.",
        "params": {
          "newOwner": "The address to transfer ownership to."
        }
      }
    }
  },
  "userdoc": {
    "methods": {
      "renounceOwnership()": {
        "notice": "Renouncing to ownership will leave the contract without an owner. It will not be possible to call the functions with the `onlyOwner` modifier anymore."
      }
    }
  }
}