{
  "contractName": "LoanMaster",
  "abi": [
    {
      "constant": false,
      "inputs": [],
      "name": "renounceOwnership",
      "outputs": [],
      "payable": false,
      "stateMutability": "nonpayable",
      "type": "function"
    },
    {
      "constant": true,
      "inputs": [],
      "name": "owner",
      "outputs": [
        {
          "name": "",
          "type": "address"
        }
      ],
      "payable": false,
      "stateMutability": "view",
      "type": "function"
    },
    {
      "constant": true,
      "inputs": [],
      "name": "isOwner",
      "outputs": [
        {
          "name": "",
          "type": "bool"
        }
      ],
      "payable": false,
      "stateMutability": "view",
      "type": "function"
    },
    {
      "constant": false,
      "inputs": [
        {
          "name": "newOwner",
          "type": "address"
        }
      ],
      "name": "transferOwnership",
      "outputs": [],
      "payable": false,
      "stateMutability": "nonpayable",
      "type": "function"
    },
    {
      "inputs": [],
      "payable": false,
      "stateMutability": "nonpayable",
      "type": "constructor"
    },
    {
      "anonymous": false,
      "inputs": [
        {
          "indexed": false,
          "name": "originator",
          "type": "address"
        },
        {
          "indexed": false,
          "name": "lender",
          "type": "address"
        },
        {
          "indexed": false,
          "name": "weiOfLoan",
          "type": "uint256"
        },
        {
          "indexed": false,
          "name": "loanIdentifier",
          "type": "string"
        },
        {
          "indexed": false,
          "name": "tokenId",
          "type": "uint256"
        }
      ],
      "name": "LenderPayment",
      "type": "event"
    },
    {
      "anonymous": false,
      "inputs": [
        {
          "indexed": false,
          "name": "originator",
          "type": "address"
        },
        {
          "indexed": false,
          "name": "lender",
          "type": "address"
        },
        {
          "indexed": false,
          "name": "weiOfLoan",
          "type": "uint256"
        },
        {
          "indexed": false,
          "name": "loanIdentifier",
          "type": "string"
        }
      ],
      "name": "OriginatorPayment",
      "type": "event"
    },
    {
      "anonymous": false,
      "inputs": [
        {
          "indexed": true,
          "name": "previousOwner",
          "type": "address"
        },
        {
          "indexed": true,
          "name": "newOwner",
          "type": "address"
        }
      ],
      "name": "OwnershipTransferred",
      "type": "event"
    },
    {
      "constant": true,
      "inputs": [],
      "name": "creationFeeBasisPoints",
      "outputs": [
        {
          "name": "",
          "type": "uint256"
        }
      ],
      "payable": false,
      "stateMutability": "view",
      "type": "function"
    },
    {
      "constant": true,
      "inputs": [],
      "name": "token",
      "outputs": [
        {
          "name": "",
          "type": "address"
        }
      ],
      "payable": false,
      "stateMutability": "view",
      "type": "function"
    },
    {
      "constant": false,
      "inputs": [
        {
          "name": "newCreationFeeBasisPoints",
          "type": "uint256"
        }
      ],
      "name": "setFeeRate",
      "outputs": [],
      "payable": false,
      "stateMutability": "nonpayable",
      "type": "function"
    },
    {
      "constant": true,
      "inputs": [
        {
          "name": "loanIdentifier",
          "type": "string"
        }
      ],
      "name": "getLoanTokenIds",
      "outputs": [
        {
          "name": "",
          "type": "uint256[]"
        }
      ],
      "payable": false,
      "stateMutability": "view",
      "type": "function"
    },
    {
      "constant": false,
      "inputs": [
        {
          "name": "originator",
          "type": "address"
        },
        {
          "name": "weiOfLoan",
          "type": "uint256"
        },
        {
          "name": "loanIdentifier",
          "type": "string"
        }
      ],
      "name": "createLoan",
      "outputs": [
        {
          "name": "",
          "type": "uint256"
        }
      ],
      "payable": true,
      "stateMutability": "payable",
      "type": "function"
    },
    {
      "constant": true,
      "inputs": [
        {
          "name": "weiOfLoan",
          "type": "uint256"
        }
      ],
      "name": "getCalcValuePlusFee",
      "outputs": [
        {
          "name": "",
          "type": "uint256"
        }
      ],
      "payable": false,
      "stateMutability": "view",
      "type": "function"
    },
    {
      "constant": false,
      "inputs": [
        {
          "name": "loanIdentifier",
          "type": "string"
        }
      ],
      "name": "completeLoan",
      "outputs": [],
      "payable": true,
      "stateMutability": "payable",
      "type": "function"
    }
  ],
  "bytecode": "0x60806040526101f460025534801561001657600080fd5b50336000806101000a81548173ffffffffffffffffffffffffffffffffffffffff021916908373ffffffffffffffffffffffffffffffffffffffff1602179055506000809054906101000a900473ffffffffffffffffffffffffffffffffffffffff1673ffffffffffffffffffffffffffffffffffffffff16600073ffffffffffffffffffffffffffffffffffffffff167f8be0079c531659141344cd1fd0a4f28419497f9722a3daafe3b4186f6b6457e060405160405180910390a36040516100df90610141565b604051809103906000f0801580156100fb573d6000803e3d6000fd5b50600160006101000a81548173ffffffffffffffffffffffffffffffffffffffff021916908373ffffffffffffffffffffffffffffffffffffffff16021790555061014f565b613b5b8062001d4f83390190565b611bf0806200015f6000396000f3fe60806040526004361061009c5760003560e01c80638e3f9b31116100645780638e3f9b31146103605780638f32d59b146103af578063b4d3cae8146103de578063b5608c1214610499578063f2fde38b146104c4578063fc0c546a146105155761009c565b80633fbb7871146100a157806345596e2e1461019a578063715018a6146101d55780637900ded8146101ec5780638da5cb5b14610309575b600080fd5b610184600480360360608110156100b757600080fd5b81019080803573ffffffffffffffffffffffffffffffffffffffff16906020019092919080359060200190929190803590602001906401000000008111156100fe57600080fd5b82018360208201111561011057600080fd5b8035906020019184600183028401116401000000008311171561013257600080fd5b91908080601f016020809104026020016040519081016040528093929190818152602001838380828437600081840152601f19601f82011690508083019250505050505050919291929050505061056c565b6040518082815260200191505060405180910390f35b3480156101a657600080fd5b506101d3600480360360208110156101bd57600080fd5b8101908080359060200190929190505050610d4f565b005b3480156101e157600080fd5b506101ea610e4a565b005b3480156101f857600080fd5b506102b26004803603602081101561020f57600080fd5b810190808035906020019064010000000081111561022c57600080fd5b82018360208201111561023e57600080fd5b8035906020019184600183028401116401000000008311171561026057600080fd5b91908080601f016020809104026020016040519081016040528093929190818152602001838380828437600081840152601f19601f820116905080830192505050505050509192919290505050610f83565b6040518080602001828103825283818151815260200191508051906020019060200280838360005b838110156102f55780820151818401526020810190506102da565b505050509050019250505060405180910390f35b34801561031557600080fd5b5061031e611044565b604051808273ffffffffffffffffffffffffffffffffffffffff1673ffffffffffffffffffffffffffffffffffffffff16815260200191505060405180910390f35b34801561036c57600080fd5b506103996004803603602081101561038357600080fd5b810190808035906020019092919050505061106d565b6040518082815260200191505060405180910390f35b3480156103bb57600080fd5b506103c46110bc565b604051808215151515815260200191505060405180910390f35b610497600480360360208110156103f457600080fd5b810190808035906020019064010000000081111561041157600080fd5b82018360208201111561042357600080fd5b8035906020019184600183028401116401000000008311171561044557600080fd5b91908080601f016020809104026020016040519081016040528093929190818152602001838380828437600081840152601f19601f820116905080830192505050505050509192919290505050611113565b005b3480156104a557600080fd5b506104ae611702565b6040518082815260200191505060405180910390f35b3480156104d057600080fd5b50610513600480360360208110156104e757600080fd5b81019080803573ffffffffffffffffffffffffffffffffffffffff16906020019092919050505061170c565b005b34801561052157600080fd5b5061052a611792565b604051808273ffffffffffffffffffffffffffffffffffffffff1673ffffffffffffffffffffffffffffffffffffffff16815260200191505060405180910390f35b60008061059861271061058a600254876117bc90919063ffffffff16565b61184290919063ffffffff16565b905060006105af82866118d190919063ffffffff16565b905060003373ffffffffffffffffffffffffffffffffffffffff1631905081811015610626576040517f08c379a0000000000000000000000000000000000000000000000000000000008152600401808060200182810382526023815260200180611ba26023913960400191505060405180910390fd5b8134101561067f576040517f08c379a0000000000000000000000000000000000000000000000000000000008152600401808060200182810382526025815260200180611b0f6025913960400191505060405180910390fd5b60006003866040518082805190602001908083835b602083106106b75780518252602082019150602081019050602083039250610694565b6001836020036101000a03801982511681845116808217855250505050505090500191505090815260200160405180910390208054905011156109705760646003866040518082805190602001908083835b6020831061072c5780518252602082019150602081019050602083039250610709565b6001836020036101000a038019825116818451168082178552505050505050905001915050908152602001604051809103902080549050106107b9576040517f08c379a0000000000000000000000000000000000000000000000000000000008152600401808060200182810382526023815260200180611b556023913960400191505060405180910390fd5b6000600160009054906101000a900473ffffffffffffffffffffffffffffffffffffffff1673ffffffffffffffffffffffffffffffffffffffff1663696fd6216003886040518082805190602001908083835b6020831061082f578051825260208201915060208101905060208303925061080c565b6001836020036101000a038019825116818451168082178552505050505050905001915050908152602001604051809103902060008154811061086e57fe5b90600052602060002001546040518263ffffffff1660e01b81526004018082815260200191505060206040518083038186803b1580156108ad57600080fd5b505afa1580156108c1573d6000803e3d6000fd5b505050506040513d60208110156108d757600080fd5b810190808051906020019092919050505090508773ffffffffffffffffffffffffffffffffffffffff168173ffffffffffffffffffffffffffffffffffffffff161461096e576040517f08c379a000000000000000000000000000000000000000000000000000000000815260040180806020018281038252602a815260200180611b78602a913960400191505060405180910390fd5b505b6000600160009054906101000a900473ffffffffffffffffffffffffffffffffffffffff1673ffffffffffffffffffffffffffffffffffffffff1663d348bb0089338a8a6040518563ffffffff1660e01b8152600401808573ffffffffffffffffffffffffffffffffffffffff1673ffffffffffffffffffffffffffffffffffffffff1681526020018473ffffffffffffffffffffffffffffffffffffffff1673ffffffffffffffffffffffffffffffffffffffff16815260200183815260200180602001828103825283818151815260200191508051906020019080838360005b83811015610a6d578082015181840152602081019050610a52565b50505050905090810190601f168015610a9a5780820380516001836020036101000a031916815260200191505b5095505050505050602060405180830381600087803b158015610abc57600080fd5b505af1158015610ad0573d6000803e3d6000fd5b505050506040513d6020811015610ae657600080fd5b810190808051906020019092919050505090506003866040518082805190602001908083835b60208310610b2f5780518252602082019150602081019050602083039250610b0c565b6001836020036101000a03801982511681845116808217855250505050505090500191505090815260200160405180910390208190806001815401808255809150509060018203906000526020600020016000909192909190915055508773ffffffffffffffffffffffffffffffffffffffff166108fc889081150290604051600060405180830381858888f19350505050158015610bd2573d6000803e3d6000fd5b506000610bdd611044565b905060008190508073ffffffffffffffffffffffffffffffffffffffff166108fc879081150290604051600060405180830381858888f19350505050158015610c2a573d6000803e3d6000fd5b507fe63efd70ee9c73e9f038f7496a808478b122fac59c241e84e13d358341a82ee78a338b8b87604051808673ffffffffffffffffffffffffffffffffffffffff1673ffffffffffffffffffffffffffffffffffffffff1681526020018573ffffffffffffffffffffffffffffffffffffffff1673ffffffffffffffffffffffffffffffffffffffff16815260200184815260200180602001838152602001828103825284818151815260200191508051906020019080838360005b83811015610d01578082015181840152602081019050610ce6565b50505050905090810190601f168015610d2e5780820380516001836020036101000a031916815260200191505b50965050505050505060405180910390a18296505050505050509392505050565b610d576110bc565b610dc9576040517f08c379a00000000000000000000000000000000000000000000000000000000081526004018080602001828103825260208152602001807f4f776e61626c653a2063616c6c6572206973206e6f7420746865206f776e657281525060200191505060405180910390fd5b6127108110610e40576040517f08c379a000000000000000000000000000000000000000000000000000000000815260040180806020018281038252601e8152602001807f43616e7420636861726765206d6f7265207468616e203130302520666565000081525060200191505060405180910390fd5b8060028190555050565b610e526110bc565b610ec4576040517f08c379a00000000000000000000000000000000000000000000000000000000081526004018080602001828103825260208152602001807f4f776e61626c653a2063616c6c6572206973206e6f7420746865206f776e657281525060200191505060405180910390fd5b600073ffffffffffffffffffffffffffffffffffffffff166000809054906101000a900473ffffffffffffffffffffffffffffffffffffffff1673ffffffffffffffffffffffffffffffffffffffff167f8be0079c531659141344cd1fd0a4f28419497f9722a3daafe3b4186f6b6457e060405160405180910390a360008060006101000a81548173ffffffffffffffffffffffffffffffffffffffff021916908373ffffffffffffffffffffffffffffffffffffffff160217905550565b60606003826040518082805190602001908083835b60208310610fbb5780518252602082019150602081019050602083039250610f98565b6001836020036101000a038019825116818451168082178552505050505050905001915050908152602001604051809103902080548060200260200160405190810160405280929190818152602001828054801561103857602002820191906000526020600020905b815481526020019060010190808311611024575b50505050509050919050565b60008060009054906101000a900473ffffffffffffffffffffffffffffffffffffffff16905090565b60008061109961271061108b600254866117bc90919063ffffffff16565b61184290919063ffffffff16565b905060006110b082856118d190919063ffffffff16565b90508092505050919050565b60008060009054906101000a900473ffffffffffffffffffffffffffffffffffffffff1673ffffffffffffffffffffffffffffffffffffffff163373ffffffffffffffffffffffffffffffffffffffff1614905090565b60606003826040518082805190602001908083835b6020831061114b5780518252602082019150602081019050602083039250611128565b6001836020036101000a03801982511681845116808217855250505050505090500191505090815260200160405180910390208054806020026020016040519081016040528092919081815260200182805480156111c857602002820191906000526020600020905b8154815260200190600101908083116111b4575b505050505090506000815111611229576040517f08c379a0000000000000000000000000000000000000000000000000000000008152600401808060200182810382526023815260200180611aec6023913960400191505060405180910390fd5b6000600160009054906101000a900473ffffffffffffffffffffffffffffffffffffffff1673ffffffffffffffffffffffffffffffffffffffff1663696fd6218360008151811061127657fe5b60200260200101516040518263ffffffff1660e01b81526004018082815260200191505060206040518083038186803b1580156112b257600080fd5b505afa1580156112c6573d6000803e3d6000fd5b505050506040513d60208110156112dc57600080fd5b810190808051906020019092919050505090503373ffffffffffffffffffffffffffffffffffffffff168173ffffffffffffffffffffffffffffffffffffffff1614611373576040517f08c379a0000000000000000000000000000000000000000000000000000000008152600401808060200182810382526028815260200180611a9e6028913960400191505060405180910390fd5b60008090505b82518110156116fc57600083828151811061139057fe5b602002602001015190506000600160009054906101000a900473ffffffffffffffffffffffffffffffffffffffff1673ffffffffffffffffffffffffffffffffffffffff16636352211e836040518263ffffffff1660e01b81526004018082815260200191505060206040518083038186803b15801561140f57600080fd5b505afa158015611423573d6000803e3d6000fd5b505050506040513d602081101561143957600080fd5b8101908080519060200190929190505050905060008190506000600160009054906101000a900473ffffffffffffffffffffffffffffffffffffffff1673ffffffffffffffffffffffffffffffffffffffff16636ab56682856040518263ffffffff1660e01b81526004018082815260200191505060206040518083038186803b1580156114c657600080fd5b505afa1580156114da573d6000803e3d6000fd5b505050506040513d60208110156114f057600080fd5b81019080805190602001909291905050509050600160009054906101000a900473ffffffffffffffffffffffffffffffffffffffff1673ffffffffffffffffffffffffffffffffffffffff16631822948482866040518363ffffffff1660e01b81526004018083815260200182815260200192505050600060405180830381600087803b15801561158057600080fd5b505af1158015611594573d6000803e3d6000fd5b505050508173ffffffffffffffffffffffffffffffffffffffff166108fc829081150290604051600060405180830381858888f193505050501580156115de573d6000803e3d6000fd5b507fd1cbf82d4a925b2ff8a7a0de307fc0e602d62458d9ad227fbd4c6be39cc3e0873384838b604051808573ffffffffffffffffffffffffffffffffffffffff1673ffffffffffffffffffffffffffffffffffffffff1681526020018473ffffffffffffffffffffffffffffffffffffffff1673ffffffffffffffffffffffffffffffffffffffff16815260200183815260200180602001828103825283818151815260200191508051906020019080838360005b838110156116ae578082015181840152602081019050611693565b50505050905090810190601f1680156116db5780820380516001836020036101000a031916815260200191505b509550505050505060405180910390a1505050508080600101915050611379565b50505050565b6000600254905090565b6117146110bc565b611786576040517f08c379a00000000000000000000000000000000000000000000000000000000081526004018080602001828103825260208152602001807f4f776e61626c653a2063616c6c6572206973206e6f7420746865206f776e657281525060200191505060405180910390fd5b61178f81611959565b50565b6000600160009054906101000a900473ffffffffffffffffffffffffffffffffffffffff16905090565b6000808314156117cf576000905061183c565b60008284029050828482816117e057fe5b0414611837576040517f08c379a0000000000000000000000000000000000000000000000000000000008152600401808060200182810382526021815260200180611b346021913960400191505060405180910390fd5b809150505b92915050565b60008082116118b9576040517f08c379a000000000000000000000000000000000000000000000000000000000815260040180806020018281038252601a8152602001807f536166654d6174683a206469766973696f6e206279207a65726f00000000000081525060200191505060405180910390fd5b60008284816118c457fe5b0490508091505092915050565b60008082840190508381101561194f576040517f08c379a000000000000000000000000000000000000000000000000000000000815260040180806020018281038252601b8152602001807f536166654d6174683a206164646974696f6e206f766572666c6f77000000000081525060200191505060405180910390fd5b8091505092915050565b600073ffffffffffffffffffffffffffffffffffffffff168173ffffffffffffffffffffffffffffffffffffffff1614156119df576040517f08c379a0000000000000000000000000000000000000000000000000000000008152600401808060200182810382526026815260200180611ac66026913960400191505060405180910390fd5b8073ffffffffffffffffffffffffffffffffffffffff166000809054906101000a900473ffffffffffffffffffffffffffffffffffffffff1673ffffffffffffffffffffffffffffffffffffffff167f8be0079c531659141344cd1fd0a4f28419497f9722a3daafe3b4186f6b6457e060405160405180910390a3806000806101000a81548173ffffffffffffffffffffffffffffffffffffffff021916908373ffffffffffffffffffffffffffffffffffffffff1602179055505056fe4f6e6c7920746865206f726967696e61746f722063616e20706179206f666620746865206c6f616e4f776e61626c653a206e6577206f776e657220697320746865207a65726f20616464726573734e6f20746f6b656e73206173736f63696174656420776974682074686973206c6f616e496e73756666696369656e742076616c7565206f6e20746865207472616e73616374696f6e536166654d6174683a206d756c7469706c69636174696f6e206f766572666c6f774d617820746f6b656e7320616c7265616479207265616368656420666f72206c6f616e54686572652063616e206f6e6c79206265206f6e65206f726967696e61746f72206f6e2061206c6f616e496e73756666696369656e742062616c616e636520746f20637265617465206c6f616ea165627a7a7230582086e7971b7193b30b69dcc2dff3e4c595fecf1befa16bac8ecab73a93292809fa002960806040523480156200001157600080fd5b506040518060400160405280600981526020017f4865726f546f6b656e00000000000000000000000000000000000000000000008152506040518060400160405280600381526020017f484c5400000000000000000000000000000000000000000000000000000000008152508181620000986301ffc9a760e01b620001eb60201b60201c565b620000b06380ac58cd60e01b620001eb60201b60201c565b620000c863780e9d6360e01b620001eb60201b60201c565b8160099080519060200190620000e092919062000519565b5080600a9080519060200190620000f992919062000519565b5062000112635b5e139f60e01b620001eb60201b60201c565b505050506200012733620002f460201b60201c565b33600d60006101000a81548173ffffffffffffffffffffffffffffffffffffffff021916908373ffffffffffffffffffffffffffffffffffffffff160217905550600d60009054906101000a900473ffffffffffffffffffffffffffffffffffffffff1673ffffffffffffffffffffffffffffffffffffffff16600073ffffffffffffffffffffffffffffffffffffffff167f8be0079c531659141344cd1fd0a4f28419497f9722a3daafe3b4186f6b6457e060405160405180910390a3620005c8565b63ffffffff60e01b817bffffffffffffffffffffffffffffffffffffffffffffffffffffffff1916141562000288576040517f08c379a000000000000000000000000000000000000000000000000000000000815260040180806020018281038252601c8152602001807f4552433136353a20696e76616c696420696e746572666163652069640000000081525060200191505060405180910390fd5b6001600080837bffffffffffffffffffffffffffffffffffffffffffffffffffffffff19167bffffffffffffffffffffffffffffffffffffffffffffffffffffffff1916815260200190815260200160002060006101000a81548160ff02191690831515021790555050565b6200030f81600c6200035560201b62002e021790919060201c565b8073ffffffffffffffffffffffffffffffffffffffff167f6ae172837ea30b801fbfcdd4108aa1d5bf8ff775444fd70256b44e6bf3dfc3f660405160405180910390a250565b6200036782826200043960201b60201c565b15620003db576040517f08c379a000000000000000000000000000000000000000000000000000000000815260040180806020018281038252601f8152602001807f526f6c65733a206163636f756e7420616c72656164792068617320726f6c650081525060200191505060405180910390fd5b60018260000160008373ffffffffffffffffffffffffffffffffffffffff1673ffffffffffffffffffffffffffffffffffffffff16815260200190815260200160002060006101000a81548160ff0219169083151502179055505050565b60008073ffffffffffffffffffffffffffffffffffffffff168273ffffffffffffffffffffffffffffffffffffffff161415620004c2576040517f08c379a000000000000000000000000000000000000000000000000000000000815260040180806020018281038252602281526020018062003b396022913960400191505060405180910390fd5b8260000160008373ffffffffffffffffffffffffffffffffffffffff1673ffffffffffffffffffffffffffffffffffffffff16815260200190815260200160002060009054906101000a900460ff16905092915050565b828054600181600116156101000203166002900490600052602060002090601f016020900481019282601f106200055c57805160ff19168380011785556200058d565b828001600101855582156200058d579182015b828111156200058c5782518255916020019190600101906200056f565b5b5090506200059c9190620005a0565b5090565b620005c591905b80821115620005c1576000816000905550600101620005a7565b5090565b90565b61356180620005d86000396000f3fe608060405234801561001057600080fd5b50600436106101c45760003560e01c806370a08231116100f9578063a22cb46511610097578063c87b56dd11610071578063c87b56dd14610a17578063d348bb0014610abe578063e985e9c514610bd7578063f2fde38b14610c53576101c4565b8063a22cb46514610866578063aa271e1a146108b6578063b88d4fde14610912576101c4565b80638f32d59b116100d35780638f32d59b1461077357806395d89b4114610795578063983b2d5614610818578063986502751461085c576101c4565b806370a08231146106c7578063715018a61461071f5780638da5cb5b14610729576101c4565b80632f745c59116101665780634f6ccce7116101405780634f6ccce7146105675780636352211e146105a9578063696fd621146106175780636ab5668214610685576101c4565b80632f745c591461043157806340c10f191461049357806342842e0e146104f9576101c4565b8063095ea7b3116101a2578063095ea7b31461031f57806318160ddd1461036d578063182294841461038b57806323b872dd146103c3576101c4565b806301ffc9a7146101c957806306fdde031461022e578063081812fc146102b1575b600080fd5b610214600480360360208110156101df57600080fd5b8101908080357bffffffffffffffffffffffffffffffffffffffffffffffffffffffff19169060200190929190505050610c97565b604051808215151515815260200191505060405180910390f35b610236610cfe565b6040518080602001828103825283818151815260200191508051906020019080838360005b8381101561027657808201518184015260208101905061025b565b50505050905090810190601f1680156102a35780820380516001836020036101000a031916815260200191505b509250505060405180910390f35b6102dd600480360360208110156102c757600080fd5b8101908080359060200190929190505050610da0565b604051808273ffffffffffffffffffffffffffffffffffffffff1673ffffffffffffffffffffffffffffffffffffffff16815260200191505060405180910390f35b61036b6004803603604081101561033557600080fd5b81019080803573ffffffffffffffffffffffffffffffffffffffff16906020019092919080359060200190929190505050610e3b565b005b610375611014565b6040518082815260200191505060405180910390f35b6103c1600480360360408110156103a157600080fd5b810190808035906020019092919080359060200190929190505050611021565b005b61042f600480360360608110156103d957600080fd5b81019080803573ffffffffffffffffffffffffffffffffffffffff169060200190929190803573ffffffffffffffffffffffffffffffffffffffff1690602001909291908035906020019092919050505061115e565b005b61047d6004803603604081101561044757600080fd5b81019080803573ffffffffffffffffffffffffffffffffffffffff169060200190929190803590602001909291905050506111cd565b6040518082815260200191505060405180910390f35b6104df600480360360408110156104a957600080fd5b81019080803573ffffffffffffffffffffffffffffffffffffffff1690602001909291908035906020019092919050505061128c565b604051808215151515815260200191505060405180910390f35b6105656004803603606081101561050f57600080fd5b81019080803573ffffffffffffffffffffffffffffffffffffffff169060200190929190803573ffffffffffffffffffffffffffffffffffffffff16906020019092919080359060200190929190505050611300565b005b6105936004803603602081101561057d57600080fd5b8101908080359060200190929190505050611320565b6040518082815260200191505060405180910390f35b6105d5600480360360208110156105bf57600080fd5b81019080803590602001909291905050506113a0565b604051808273ffffffffffffffffffffffffffffffffffffffff1673ffffffffffffffffffffffffffffffffffffffff16815260200191505060405180910390f35b6106436004803603602081101561062d57600080fd5b8101908080359060200190929190505050611468565b604051808273ffffffffffffffffffffffffffffffffffffffff1673ffffffffffffffffffffffffffffffffffffffff16815260200191505060405180910390f35b6106b16004803603602081101561069b57600080fd5b8101908080359060200190929190505050611511565b6040518082815260200191505060405180910390f35b610709600480360360208110156106dd57600080fd5b81019080803573ffffffffffffffffffffffffffffffffffffffff1690602001909291905050506115d0565b6040518082815260200191505060405180910390f35b6107276116a5565b005b6107316117e0565b604051808273ffffffffffffffffffffffffffffffffffffffff1673ffffffffffffffffffffffffffffffffffffffff16815260200191505060405180910390f35b61077b61180a565b604051808215151515815260200191505060405180910390f35b61079d611862565b6040518080602001828103825283818151815260200191508051906020019080838360005b838110156107dd5780820151818401526020810190506107c2565b50505050905090810190601f16801561080a5780820380516001836020036101000a031916815260200191505b509250505060405180910390f35b61085a6004803603602081101561082e57600080fd5b81019080803573ffffffffffffffffffffffffffffffffffffffff169060200190929190505050611904565b005b61086461196e565b005b6108b46004803603604081101561087c57600080fd5b81019080803573ffffffffffffffffffffffffffffffffffffffff169060200190929190803515159060200190929190505050611979565b005b6108f8600480360360208110156108cc57600080fd5b81019080803573ffffffffffffffffffffffffffffffffffffffff169060200190929190505050611b1c565b604051808215151515815260200191505060405180910390f35b610a156004803603608081101561092857600080fd5b81019080803573ffffffffffffffffffffffffffffffffffffffff169060200190929190803573ffffffffffffffffffffffffffffffffffffffff169060200190929190803590602001909291908035906020019064010000000081111561098f57600080fd5b8201836020820111156109a157600080fd5b803590602001918460018302840111640100000000831117156109c357600080fd5b91908080601f016020809104026020016040519081016040528093929190818152602001838380828437600081840152601f19601f820116905080830192505050505050509192919290505050611b39565b005b610a4360048036036020811015610a2d57600080fd5b8101908080359060200190929190505050611bab565b6040518080602001828103825283818151815260200191508051906020019080838360005b83811015610a83578082015181840152602081019050610a68565b50505050905090810190601f168015610ab05780820380516001836020036101000a031916815260200191505b509250505060405180910390f35b610bc160048036036080811015610ad457600080fd5b81019080803573ffffffffffffffffffffffffffffffffffffffff169060200190929190803573ffffffffffffffffffffffffffffffffffffffff1690602001909291908035906020019092919080359060200190640100000000811115610b3b57600080fd5b820183602082011115610b4d57600080fd5b80359060200191846001830284011164010000000083111715610b6f57600080fd5b91908080601f016020809104026020016040519081016040528093929190818152602001838380828437600081840152601f19601f820116905080830192505050505050509192919290505050611cbe565b6040518082815260200191505060405180910390f35b610c3960048036036040811015610bed57600080fd5b81019080803573ffffffffffffffffffffffffffffffffffffffff169060200190929190803573ffffffffffffffffffffffffffffffffffffffff169060200190929190505050611e20565b604051808215151515815260200191505060405180910390f35b610c9560048036036020811015610c6957600080fd5b81019080803573ffffffffffffffffffffffffffffffffffffffff169060200190929190505050611eb4565b005b6000806000837bffffffffffffffffffffffffffffffffffffffffffffffffffffffff19167bffffffffffffffffffffffffffffffffffffffffffffffffffffffff1916815260200190815260200160002060009054906101000a900460ff169050919050565b606060098054600181600116156101000203166002900480601f016020809104026020016040519081016040528092919081815260200182805460018160011615610100020316600290048015610d965780601f10610d6b57610100808354040283529160200191610d96565b820191906000526020600020905b815481529060010190602001808311610d7957829003601f168201915b5050505050905090565b6000610dab82611f3a565b610e00576040517f08c379a000000000000000000000000000000000000000000000000000000000815260040180806020018281038252602c8152602001806133e6602c913960400191505060405180910390fd5b6002600083815260200190815260200160002060009054906101000a900473ffffffffffffffffffffffffffffffffffffffff169050919050565b6000610e46826113a0565b90508073ffffffffffffffffffffffffffffffffffffffff168373ffffffffffffffffffffffffffffffffffffffff161415610ecd576040517f08c379a00000000000000000000000000000000000000000000000000000000081526004018080602001828103825260218152602001806134b86021913960400191505060405180910390fd5b8073ffffffffffffffffffffffffffffffffffffffff163373ffffffffffffffffffffffffffffffffffffffff161480610f0d5750610f0c8133611e20565b5b610f62576040517f08c379a000000000000000000000000000000000000000000000000000000000815260040180806020018281038252603881526020018061330a6038913960400191505060405180910390fd5b826002600084815260200190815260200160002060006101000a81548173ffffffffffffffffffffffffffffffffffffffff021916908373ffffffffffffffffffffffffffffffffffffffff160217905550818373ffffffffffffffffffffffffffffffffffffffff168273ffffffffffffffffffffffffffffffffffffffff167f8c5be1e5ebec7d5bd14f71427d1e84f3dd0314c0f7b2291e5b200ac8c7c3b92560405160405180910390a4505050565b6000600780549050905090565b61102961180a565b61109b576040517f08c379a00000000000000000000000000000000000000000000000000000000081526004018080602001828103825260208152602001807f4f776e61626c653a2063616c6c6572206973206e6f7420746865206f776e657281525060200191505060405180910390fd5b6000600e82815481106110aa57fe5b9060005260206000209060030201905060006110d3848360010154611fac90919063ffffffff16565b9050816000015481111561114f576040517f08c379a00000000000000000000000000000000000000000000000000000000081526004018080602001828103825260138152602001807f43616e6e6f74206f766572706179206c6f616e0000000000000000000000000081525060200191505060405180910390fd5b80826001018190555050505050565b6111683382612034565b6111bd576040517f08c379a00000000000000000000000000000000000000000000000000000000081526004018080602001828103825260318152602001806134d96031913960400191505060405180910390fd5b6111c8838383612128565b505050565b60006111d8836115d0565b821061122f576040517f08c379a000000000000000000000000000000000000000000000000000000000815260040180806020018281038252602b815260200180613237602b913960400191505060405180910390fd5b600560008473ffffffffffffffffffffffffffffffffffffffff1673ffffffffffffffffffffffffffffffffffffffff168152602001908152602001600020828154811061127957fe5b9060005260206000200154905092915050565b600061129733611b1c565b6112ec576040517f08c379a00000000000000000000000000000000000000000000000000000000081526004018080602001828103825260308152602001806133956030913960400191505060405180910390fd5b6112f6838361214c565b6001905092915050565b61131b83838360405180602001604052806000815250611b39565b505050565b600061132a611014565b8210611381576040517f08c379a000000000000000000000000000000000000000000000000000000000815260040180806020018281038252602c81526020018061350a602c913960400191505060405180910390fd5b6007828154811061138e57fe5b90600052602060002001549050919050565b6000806001600084815260200190815260200160002060009054906101000a900473ffffffffffffffffffffffffffffffffffffffff169050600073ffffffffffffffffffffffffffffffffffffffff168173ffffffffffffffffffffffffffffffffffffffff16141561145f576040517f08c379a000000000000000000000000000000000000000000000000000000000815260040180806020018281038252602981526020018061336c6029913960400191505060405180910390fd5b80915050919050565b600061147261312e565b600e838154811061147f57fe5b906000526020600020906003020160405180606001604052908160008201548152602001600182015481526020016002820160009054906101000a900473ffffffffffffffffffffffffffffffffffffffff1673ffffffffffffffffffffffffffffffffffffffff1673ffffffffffffffffffffffffffffffffffffffff168152505090508060400151915050919050565b600061151b61312e565b600e838154811061152857fe5b906000526020600020906003020160405180606001604052908160008201548152602001600182015481526020016002820160009054906101000a900473ffffffffffffffffffffffffffffffffffffffff1673ffffffffffffffffffffffffffffffffffffffff1673ffffffffffffffffffffffffffffffffffffffff168152505090506115c88160200151826000015161216d90919063ffffffff16565b915050919050565b60008073ffffffffffffffffffffffffffffffffffffffff168273ffffffffffffffffffffffffffffffffffffffff161415611657576040517f08c379a000000000000000000000000000000000000000000000000000000000815260040180806020018281038252602a815260200180613342602a913960400191505060405180910390fd5b61169e600360008473ffffffffffffffffffffffffffffffffffffffff1673ffffffffffffffffffffffffffffffffffffffff1681526020019081526020016000206121f6565b9050919050565b6116ad61180a565b61171f576040517f08c379a00000000000000000000000000000000000000000000000000000000081526004018080602001828103825260208152602001807f4f776e61626c653a2063616c6c6572206973206e6f7420746865206f776e657281525060200191505060405180910390fd5b600073ffffffffffffffffffffffffffffffffffffffff16600d60009054906101000a900473ffffffffffffffffffffffffffffffffffffffff1673ffffffffffffffffffffffffffffffffffffffff167f8be0079c531659141344cd1fd0a4f28419497f9722a3daafe3b4186f6b6457e060405160405180910390a36000600d60006101000a81548173ffffffffffffffffffffffffffffffffffffffff021916908373ffffffffffffffffffffffffffffffffffffffff160217905550565b6000600d60009054906101000a900473ffffffffffffffffffffffffffffffffffffffff16905090565b6000600d60009054906101000a900473ffffffffffffffffffffffffffffffffffffffff1673ffffffffffffffffffffffffffffffffffffffff163373ffffffffffffffffffffffffffffffffffffffff1614905090565b6060600a8054600181600116156101000203166002900480601f0160208091040260200160405190810160405280929190818152602001828054600181600116156101000203166002900480156118fa5780601f106118cf576101008083540402835291602001916118fa565b820191906000526020600020905b8154815290600101906020018083116118dd57829003601f168201915b5050505050905090565b61190d33611b1c565b611962576040517f08c379a00000000000000000000000000000000000000000000000000000000081526004018080602001828103825260308152602001806133956030913960400191505060405180910390fd5b61196b81612204565b50565b6119773361225e565b565b3373ffffffffffffffffffffffffffffffffffffffff168273ffffffffffffffffffffffffffffffffffffffff161415611a1b576040517f08c379a00000000000000000000000000000000000000000000000000000000081526004018080602001828103825260198152602001807f4552433732313a20617070726f766520746f2063616c6c65720000000000000081525060200191505060405180910390fd5b80600460003373ffffffffffffffffffffffffffffffffffffffff1673ffffffffffffffffffffffffffffffffffffffff16815260200190815260200160002060008473ffffffffffffffffffffffffffffffffffffffff1673ffffffffffffffffffffffffffffffffffffffff16815260200190815260200160002060006101000a81548160ff0219169083151502179055508173ffffffffffffffffffffffffffffffffffffffff163373ffffffffffffffffffffffffffffffffffffffff167f17307eab39ab6107e8899845ad3d59bd9653f200f220920489ca2b5937696c3183604051808215151515815260200191505060405180910390a35050565b6000611b3282600c6122b890919063ffffffff16565b9050919050565b611b4484848461115e565b611b5084848484612396565b611ba5576040517f08c379a00000000000000000000000000000000000000000000000000000000081526004018080602001828103825260328152602001806132626032913960400191505060405180910390fd5b50505050565b6060611bb682611f3a565b611c0b576040517f08c379a000000000000000000000000000000000000000000000000000000000815260040180806020018281038252602f815260200180613489602f913960400191505060405180910390fd5b600b60008381526020019081526020016000208054600181600116156101000203166002900480601f016020809104026020016040519081016040528092919081815260200182805460018160011615610100020316600290048015611cb25780601f10611c8757610100808354040283529160200191611cb2565b820191906000526020600020905b815481529060010190602001808311611c9557829003601f168201915b50505050509050919050565b6000611cc861180a565b611d3a576040517f08c379a00000000000000000000000000000000000000000000000000000000081526004018080602001828103825260208152602001807f4f776e61626c653a2063616c6c6572206973206e6f7420746865206f776e657281525060200191505060405180910390fd5b611d4261312e565b6040518060600160405280858152602001600081526020018773ffffffffffffffffffffffffffffffffffffffff16815250905060006001600e8390806001815401808255809150509060018203906000526020600020906003020160009091929091909150600082015181600001556020820151816001015560408201518160020160006101000a81548173ffffffffffffffffffffffffffffffffffffffff021916908373ffffffffffffffffffffffffffffffffffffffff1602179055505050039050611e1386828661257f565b8092505050949350505050565b6000600460008473ffffffffffffffffffffffffffffffffffffffff1673ffffffffffffffffffffffffffffffffffffffff16815260200190815260200160002060008373ffffffffffffffffffffffffffffffffffffffff1673ffffffffffffffffffffffffffffffffffffffff16815260200190815260200160002060009054906101000a900460ff16905092915050565b611ebc61180a565b611f2e576040517f08c379a00000000000000000000000000000000000000000000000000000000081526004018080602001828103825260208152602001807f4f776e61626c653a2063616c6c6572206973206e6f7420746865206f776e657281525060200191505060405180910390fd5b611f3781612598565b50565b6000806001600084815260200190815260200160002060009054906101000a900473ffffffffffffffffffffffffffffffffffffffff169050600073ffffffffffffffffffffffffffffffffffffffff168173ffffffffffffffffffffffffffffffffffffffff161415915050919050565b60008082840190508381101561202a576040517f08c379a000000000000000000000000000000000000000000000000000000000815260040180806020018281038252601b8152602001807f536166654d6174683a206164646974696f6e206f766572666c6f77000000000081525060200191505060405180910390fd5b8091505092915050565b600061203f82611f3a565b612094576040517f08c379a000000000000000000000000000000000000000000000000000000000815260040180806020018281038252602c8152602001806132de602c913960400191505060405180910390fd5b600061209f836113a0565b90508073ffffffffffffffffffffffffffffffffffffffff168473ffffffffffffffffffffffffffffffffffffffff16148061210e57508373ffffffffffffffffffffffffffffffffffffffff166120f684610da0565b73ffffffffffffffffffffffffffffffffffffffff16145b8061211f575061211e8185611e20565b5b91505092915050565b6121338383836126de565b61213d8382612939565b6121478282612ad7565b505050565b6121568282612b9e565b6121608282612ad7565b61216981612db6565b5050565b6000828211156121e5576040517f08c379a000000000000000000000000000000000000000000000000000000000815260040180806020018281038252601e8152602001807f536166654d6174683a207375627472616374696f6e206f766572666c6f77000081525060200191505060405180910390fd5b600082840390508091505092915050565b600081600001549050919050565b61221881600c612e0290919063ffffffff16565b8073ffffffffffffffffffffffffffffffffffffffff167f6ae172837ea30b801fbfcdd4108aa1d5bf8ff775444fd70256b44e6bf3dfc3f660405160405180910390a250565b61227281600c612edd90919063ffffffff16565b8073ffffffffffffffffffffffffffffffffffffffff167fe94479a9f7e1952cc78f2d6baab678adc1b772d936c6583def489e524cb6669260405160405180910390a250565b60008073ffffffffffffffffffffffffffffffffffffffff168273ffffffffffffffffffffffffffffffffffffffff16141561233f576040517f08c379a000000000000000000000000000000000000000000000000000000000815260040180806020018281038252602281526020018061343e6022913960400191505060405180910390fd5b8260000160008373ffffffffffffffffffffffffffffffffffffffff1673ffffffffffffffffffffffffffffffffffffffff16815260200190815260200160002060009054906101000a900460ff16905092915050565b60006123b78473ffffffffffffffffffffffffffffffffffffffff16612f9a565b6123c45760019050612577565b60008473ffffffffffffffffffffffffffffffffffffffff1663150b7a02338887876040518563ffffffff1660e01b8152600401808573ffffffffffffffffffffffffffffffffffffffff1673ffffffffffffffffffffffffffffffffffffffff1681526020018473ffffffffffffffffffffffffffffffffffffffff1673ffffffffffffffffffffffffffffffffffffffff16815260200183815260200180602001828103825283818151815260200191508051906020019080838360005b8381101561249f578082015181840152602081019050612484565b50505050905090810190601f1680156124cc5780820380516001836020036101000a031916815260200191505b5095505050505050602060405180830381600087803b1580156124ee57600080fd5b505af1158015612502573d6000803e3d6000fd5b505050506040513d602081101561251857600080fd5b8101908080519060200190929190505050905063150b7a0260e01b7bffffffffffffffffffffffffffffffffffffffffffffffffffffffff1916817bffffffffffffffffffffffffffffffffffffffffffffffffffffffff1916149150505b949350505050565b612589838361214c565b6125938282612fad565b505050565b600073ffffffffffffffffffffffffffffffffffffffff168173ffffffffffffffffffffffffffffffffffffffff16141561261e576040517f08c379a00000000000000000000000000000000000000000000000000000000081526004018080602001828103825260268152602001806132946026913960400191505060405180910390fd5b8073ffffffffffffffffffffffffffffffffffffffff16600d60009054906101000a900473ffffffffffffffffffffffffffffffffffffffff1673ffffffffffffffffffffffffffffffffffffffff167f8be0079c531659141344cd1fd0a4f28419497f9722a3daafe3b4186f6b6457e060405160405180910390a380600d60006101000a81548173ffffffffffffffffffffffffffffffffffffffff021916908373ffffffffffffffffffffffffffffffffffffffff16021790555050565b8273ffffffffffffffffffffffffffffffffffffffff166126fe826113a0565b73ffffffffffffffffffffffffffffffffffffffff161461276a576040517f08c379a00000000000000000000000000000000000000000000000000000000081526004018080602001828103825260298152602001806134606029913960400191505060405180910390fd5b600073ffffffffffffffffffffffffffffffffffffffff168273ffffffffffffffffffffffffffffffffffffffff1614156127f0576040517f08c379a00000000000000000000000000000000000000000000000000000000081526004018080602001828103825260248152602001806132ba6024913960400191505060405180910390fd5b6127f981613037565b612840600360008573ffffffffffffffffffffffffffffffffffffffff1673ffffffffffffffffffffffffffffffffffffffff1681526020019081526020016000206130f5565b612887600360008473ffffffffffffffffffffffffffffffffffffffff1673ffffffffffffffffffffffffffffffffffffffff168152602001908152602001600020613118565b816001600083815260200190815260200160002060006101000a81548173ffffffffffffffffffffffffffffffffffffffff021916908373ffffffffffffffffffffffffffffffffffffffff160217905550808273ffffffffffffffffffffffffffffffffffffffff168473ffffffffffffffffffffffffffffffffffffffff167fddf252ad1be2c89b69c2b068fc378daa952ba7f163c4a11628f55a4df523b3ef60405160405180910390a4505050565b60006129916001600560008673ffffffffffffffffffffffffffffffffffffffff1673ffffffffffffffffffffffffffffffffffffffff1681526020019081526020016000208054905061216d90919063ffffffff16565b9050600060066000848152602001908152602001600020549050818114612a7e576000600560008673ffffffffffffffffffffffffffffffffffffffff1673ffffffffffffffffffffffffffffffffffffffff16815260200190815260200160002083815481106129fe57fe5b9060005260206000200154905080600560008773ffffffffffffffffffffffffffffffffffffffff1673ffffffffffffffffffffffffffffffffffffffff1681526020019081526020016000208381548110612a5657fe5b9060005260206000200181905550816006600083815260200190815260200160002081905550505b600560008573ffffffffffffffffffffffffffffffffffffffff1673ffffffffffffffffffffffffffffffffffffffff168152602001908152602001600020805480919060019003612ad09190613165565b5050505050565b600560008373ffffffffffffffffffffffffffffffffffffffff1673ffffffffffffffffffffffffffffffffffffffff168152602001908152602001600020805490506006600083815260200190815260200160002081905550600560008373ffffffffffffffffffffffffffffffffffffffff1673ffffffffffffffffffffffffffffffffffffffff1681526020019081526020016000208190806001815401808255809150509060018203906000526020600020016000909192909190915055505050565b600073ffffffffffffffffffffffffffffffffffffffff168273ffffffffffffffffffffffffffffffffffffffff161415612c41576040517f08c379a00000000000000000000000000000000000000000000000000000000081526004018080602001828103825260208152602001807f4552433732313a206d696e7420746f20746865207a65726f206164647265737381525060200191505060405180910390fd5b612c4a81611f3a565b15612cbd576040517f08c379a000000000000000000000000000000000000000000000000000000000815260040180806020018281038252601c8152602001807f4552433732313a20746f6b656e20616c7265616479206d696e7465640000000081525060200191505060405180910390fd5b816001600083815260200190815260200160002060006101000a81548173ffffffffffffffffffffffffffffffffffffffff021916908373ffffffffffffffffffffffffffffffffffffffff160217905550612d56600360008473ffffffffffffffffffffffffffffffffffffffff1673ffffffffffffffffffffffffffffffffffffffff168152602001908152602001600020613118565b808273ffffffffffffffffffffffffffffffffffffffff16600073ffffffffffffffffffffffffffffffffffffffff167fddf252ad1be2c89b69c2b068fc378daa952ba7f163c4a11628f55a4df523b3ef60405160405180910390a45050565b6007805490506008600083815260200190815260200160002081905550600781908060018154018082558091505090600182039060005260206000200160009091929091909150555050565b612e0c82826122b8565b15612e7f576040517f08c379a000000000000000000000000000000000000000000000000000000000815260040180806020018281038252601f8152602001807f526f6c65733a206163636f756e7420616c72656164792068617320726f6c650081525060200191505060405180910390fd5b60018260000160008373ffffffffffffffffffffffffffffffffffffffff1673ffffffffffffffffffffffffffffffffffffffff16815260200190815260200160002060006101000a81548160ff0219169083151502179055505050565b612ee782826122b8565b612f3c576040517f08c379a00000000000000000000000000000000000000000000000000000000081526004018080602001828103825260218152602001806133c56021913960400191505060405180910390fd5b60008260000160008373ffffffffffffffffffffffffffffffffffffffff1673ffffffffffffffffffffffffffffffffffffffff16815260200190815260200160002060006101000a81548160ff0219169083151502179055505050565b600080823b905060008111915050919050565b612fb682611f3a565b61300b576040517f08c379a000000000000000000000000000000000000000000000000000000000815260040180806020018281038252602c815260200180613412602c913960400191505060405180910390fd5b80600b60008481526020019081526020016000209080519060200190613032929190613191565b505050565b600073ffffffffffffffffffffffffffffffffffffffff166002600083815260200190815260200160002060009054906101000a900473ffffffffffffffffffffffffffffffffffffffff1673ffffffffffffffffffffffffffffffffffffffff16146130f25760006002600083815260200190815260200160002060006101000a81548173ffffffffffffffffffffffffffffffffffffffff021916908373ffffffffffffffffffffffffffffffffffffffff1602179055505b50565b61310d6001826000015461216d90919063ffffffff16565b816000018190555050565b6001816000016000828254019250508190555050565b60405180606001604052806000815260200160008152602001600073ffffffffffffffffffffffffffffffffffffffff1681525090565b81548183558181111561318c5781836000526020600020918201910161318b9190613211565b5b505050565b828054600181600116156101000203166002900490600052602060002090601f016020900481019282601f106131d257805160ff1916838001178555613200565b82800160010185558215613200579182015b828111156131ff5782518255916020019190600101906131e4565b5b50905061320d9190613211565b5090565b61323391905b8082111561322f576000816000905550600101613217565b5090565b9056fe455243373231456e756d657261626c653a206f776e657220696e646578206f7574206f6620626f756e64734552433732313a207472616e7366657220746f206e6f6e20455243373231526563656976657220696d706c656d656e7465724f776e61626c653a206e6577206f776e657220697320746865207a65726f20616464726573734552433732313a207472616e7366657220746f20746865207a65726f20616464726573734552433732313a206f70657261746f7220717565727920666f72206e6f6e6578697374656e7420746f6b656e4552433732313a20617070726f76652063616c6c6572206973206e6f74206f776e6572206e6f7220617070726f76656420666f7220616c6c4552433732313a2062616c616e636520717565727920666f7220746865207a65726f20616464726573734552433732313a206f776e657220717565727920666f72206e6f6e6578697374656e7420746f6b656e4d696e746572526f6c653a2063616c6c657220646f6573206e6f74206861766520746865204d696e74657220726f6c65526f6c65733a206163636f756e7420646f6573206e6f74206861766520726f6c654552433732313a20617070726f76656420717565727920666f72206e6f6e6578697374656e7420746f6b656e4552433732314d657461646174613a2055524920736574206f66206e6f6e6578697374656e7420746f6b656e526f6c65733a206163636f756e7420697320746865207a65726f20616464726573734552433732313a207472616e73666572206f6620746f6b656e2074686174206973206e6f74206f776e4552433732314d657461646174613a2055524920717565727920666f72206e6f6e6578697374656e7420746f6b656e4552433732313a20617070726f76616c20746f2063757272656e74206f776e65724552433732313a207472616e736665722063616c6c6572206973206e6f74206f776e6572206e6f7220617070726f766564455243373231456e756d657261626c653a20676c6f62616c20696e646578206f7574206f6620626f756e6473a165627a7a72305820c8211e29f861875d5b757d9990b6a627c3d938063695c77d2978afe4f74175730029526f6c65733a206163636f756e7420697320746865207a65726f2061646472657373",
  "source": "pragma solidity ^0.5.0;\n\nimport \"openzeppelin-solidity/contracts/ownership/Ownable.sol\";\nimport \"openzeppelin-solidity/contracts/math/SafeMath.sol\";\nimport \"./LoanToken.sol\";\n\ncontract LoanMaster is Ownable {\n    using SafeMath for uint256;\n    LoanToken private _token;\n\n    event LenderPayment(\n        address originator,\n        address lender,\n        uint256 weiOfLoan,\n        string loanIdentifier,\n        uint256 tokenId\n    );\n    \n    event OriginatorPayment(\n        address originator,\n        address lender,\n        uint256 weiOfLoan,\n        string loanIdentifier\n    );\n    // 500 basis points = 5%\n    // TODO: Determine sensible default. Can be configured with setFeeRate\n    uint256 private _creationFeeBasisPoints = 500;\n\n    // We represent our loans by their identifier & associated tokenIds\n    mapping(string => uint256[]) private _loans;\n\n    constructor() public {\n        _token = new LoanToken();\n    }\n\n    /**\n     * @dev Public accessor for the current fee in basis points\n     */\n    function creationFeeBasisPoints() public view returns (uint256) {\n        return _creationFeeBasisPoints;\n    }\n\n    /**\n     * @dev Public accessor for the token address\n     */\n    function token() public view returns (address) {\n        return address(_token);\n    }\n\n    /**\n     * @dev Changes the fee rate for loan creation\n     * @param newCreationFeeBasisPoints The new fee, in basis points\n     */\n    function setFeeRate(uint256 newCreationFeeBasisPoints) public onlyOwner {\n        require(newCreationFeeBasisPoints < 10000, \"Cant charge more than 100% fee\");\n        _creationFeeBasisPoints = newCreationFeeBasisPoints;\n    }\n\n    /**\n     * @dev Changes the fee rate for loan creation\n     * @param loanIdentifier The server-side loan identifier, created at point of loan match\n     */\n    function getLoanTokenIds(string memory loanIdentifier) public view returns (uint256[] memory) {\n        return _loans[loanIdentifier];\n    }\n\n    /**\n     * @dev Creates a new loan & token against a loanIdentifier.\n     *      This is called by the lender from the platform, with the function values\n     *      determined from the loan matching engine.\n     * @param originator The originator of the loan, who will receive the funds\n     * @param weiOfLoan The loan value, in wei.\n     * @param loanIdentifier The server-side loan identifier, created at point of loan match\n     */\n    function createLoan(\n        address payable originator,\n        uint256 weiOfLoan,\n        string memory loanIdentifier\n    ) public payable returns (uint256) {\n        // Solidity does not support floating point numbers, hence the uint256\n        // data type and multiplying by the basis points then dividing by 10000\n        uint256 fee = weiOfLoan.mul(_creationFeeBasisPoints).div(10000);\n        uint256 loanAndFee = weiOfLoan.add(fee);\n        \n        // Validate the loaner has enough balance\n        uint256 lenderBalance = msg.sender.balance;\n        require(lenderBalance >= loanAndFee, \"Insufficient balance to create loan\");\n        require(msg.value >= loanAndFee, \"Insufficient value on the transaction\");\n\n        // Validate if a loan already exists that we keep the originator the same\n        if (_loans[loanIdentifier].length > 0) {\n            // TODO: Possibly make this configurable. You want to keep this number sensible,\n            // so that calling completeLoan does not make the transaction run out of gas due to\n            // the for loop\n            require(_loans[loanIdentifier].length < 100, \"Max tokens already reached for loan\");\n\n            address currentoriginator = _token.getLoanOriginator(_loans[loanIdentifier][0]);\n            require(currentoriginator == originator, \"There can only be one originator on a loan\");\n        }\n\n        uint256 tokenId = _token.createLoanToken(originator, msg.sender, weiOfLoan, loanIdentifier);\n        _loans[loanIdentifier].push(tokenId);\n\n        originator.transfer(weiOfLoan);\n\n        address owner = owner();\n        address payable payableOwner = address(uint160(owner));\n        payableOwner.transfer(fee);\n        emit LenderPayment(originator, msg.sender, weiOfLoan, loanIdentifier, tokenId);\n        return tokenId;\n    }\n\n    function getCalcValuePlusFee(uint256 weiOfLoan) public view returns (uint256) {\n        uint256 fee = weiOfLoan.mul(_creationFeeBasisPoints).div(10000);\n        uint256 loanAndFee = weiOfLoan.add(fee);\n        return loanAndFee;\n    }\n\n    /**\n     * @dev completeLoan is called by the originator to pay off a loan in its entirety\n     *      NB: It is worth considering implementing an incremental payoff method\n     * @param loanIdentifier The server-side loan identifier, created at point of loan match\n     */\n    function completeLoan(string memory loanIdentifier) public payable {\n        uint256[] memory loanIds = _loans[loanIdentifier];\n        require(loanIds.length > 0, \"No tokens associated with this loan\");\n\n        // We know that the originator for each loan token under an identifier is the\n        // same as its enforce in the createLoanToken method\n        address originator = _token.getLoanOriginator(loanIds[0]);\n        require(originator == msg.sender, \"Only the originator can pay off the loan\");\n\n        // We will only do this loop once. The DApp will need to determine the payable\n        // balance remaining, to keep gas reasonable\n        for (uint256 i = 0; i < loanIds.length; i++) {\n            uint256 loanId = loanIds[i];\n            address ownerOfLoanToken = _token.ownerOf(loanId);\n\n            // This is the required casting to get a payable address from a standard address\n            address payable payableOwner = address(uint160(ownerOfLoanToken));\n            uint256 repaymentRemaining = _token.repaymentRemaining(loanId);\n\n            _token.repaymentMade(repaymentRemaining, loanId);\n            payableOwner.transfer(repaymentRemaining);\n            emit OriginatorPayment(msg.sender, ownerOfLoanToken, repaymentRemaining, loanIdentifier);\n        }\n    }\n}\n",
  "sourcePath": "/home/sendra/Work/Hero/herotoken-smartcontract/contracts/LoanMaster.sol",
  "compiler": {
    "name": "solc",
    "version": "0.5.8+commit.23d335f2.Emscripten.clang"
  },
  "schemaVersion": "3.0.10",
  "updatedAt": "2019-06-05T09:09:26.415Z",
  "devdoc": {
    "methods": {
      "completeLoan(string)": {
        "details": "completeLoan is called by the originator to pay off a loan in its entirety     NB: It is worth considering implementing an incremental payoff method",
        "params": {
          "loanIdentifier": "The server-side loan identifier, created at point of loan match"
        }
      },
      "createLoan(address,uint256,string)": {
        "details": "Creates a new loan & token against a loanIdentifier.     This is called by the lender from the platform, with the function values     determined from the loan matching engine.",
        "params": {
          "loanIdentifier": "The server-side loan identifier, created at point of loan match",
          "originator": "The originator of the loan, who will receive the funds",
          "weiOfLoan": "The loan value, in wei."
        }
      },
      "creationFeeBasisPoints()": {
        "details": "Public accessor for the current fee in basis points"
      },
      "getLoanTokenIds(string)": {
        "details": "Changes the fee rate for loan creation",
        "params": {
          "loanIdentifier": "The server-side loan identifier, created at point of loan match"
        }
      },
      "isOwner()": {
        "details": "Returns true if the caller is the current owner."
      },
      "owner()": {
        "details": "Returns the address of the current owner."
      },
      "renounceOwnership()": {
        "details": "Leaves the contract without owner. It will not be possible to call `onlyOwner` functions anymore. Can only be called by the current owner.     * > Note: Renouncing ownership will leave the contract without an owner, thereby removing any functionality that is only available to the owner."
      },
      "setFeeRate(uint256)": {
        "details": "Changes the fee rate for loan creation",
        "params": {
          "newCreationFeeBasisPoints": "The new fee, in basis points"
        }
      },
      "token()": {
        "details": "Public accessor for the token address"
      },
      "transferOwnership(address)": {
        "details": "Transfers ownership of the contract to a new account (`newOwner`). Can only be called by the current owner."
      }
    }
  },
  "userdoc": {
    "methods": {}
  }
}