{
  "contractName": "MainSale",
  "abi": [
    {
      "constant": true,
      "inputs": [],
      "name": "saleOngoing",
      "outputs": [
        {
          "name": "",
          "type": "bool"
        }
      ],
      "payable": false,
      "stateMutability": "view",
      "type": "function"
    },
    {
      "constant": true,
      "inputs": [],
      "name": "altDeposits",
      "outputs": [
        {
          "name": "",
          "type": "uint256"
        }
      ],
      "payable": false,
      "stateMutability": "view",
      "type": "function"
    },
    {
      "constant": true,
      "inputs": [],
      "name": "minimum",
      "outputs": [
        {
          "name": "",
          "type": "uint256"
        }
      ],
      "payable": false,
      "stateMutability": "view",
      "type": "function"
    },
    {
      "constant": true,
      "inputs": [],
      "name": "owner",
      "outputs": [
        {
          "name": "",
          "type": "address"
        }
      ],
      "payable": false,
      "stateMutability": "view",
      "type": "function"
    },
    {
      "constant": true,
      "inputs": [],
      "name": "totalReceived",
      "outputs": [
        {
          "name": "",
          "type": "uint256"
        }
      ],
      "payable": false,
      "stateMutability": "view",
      "type": "function"
    },
    {
      "constant": true,
      "inputs": [],
      "name": "hardcap",
      "outputs": [
        {
          "name": "",
          "type": "uint256"
        }
      ],
      "payable": false,
      "stateMutability": "view",
      "type": "function"
    },
    {
      "constant": true,
      "inputs": [],
      "name": "start",
      "outputs": [
        {
          "name": "",
          "type": "uint256"
        }
      ],
      "payable": false,
      "stateMutability": "view",
      "type": "function"
    },
    {
      "constant": true,
      "inputs": [],
      "name": "multisigVault",
      "outputs": [
        {
          "name": "",
          "type": "address"
        }
      ],
      "payable": false,
      "stateMutability": "view",
      "type": "function"
    },
    {
      "constant": false,
      "inputs": [
        {
          "name": "newOwner",
          "type": "address"
        }
      ],
      "name": "transferOwnership",
      "outputs": [],
      "payable": false,
      "stateMutability": "nonpayable",
      "type": "function"
    },
    {
      "constant": true,
      "inputs": [],
      "name": "token",
      "outputs": [
        {
          "name": "",
          "type": "address"
        }
      ],
      "payable": false,
      "stateMutability": "view",
      "type": "function"
    },
    {
      "inputs": [],
      "payable": false,
      "stateMutability": "nonpayable",
      "type": "constructor"
    },
    {
      "payable": true,
      "stateMutability": "payable",
      "type": "fallback"
    },
    {
      "anonymous": false,
      "inputs": [
        {
          "indexed": true,
          "name": "buyer",
          "type": "address"
        },
        {
          "indexed": false,
          "name": "ether_amount",
          "type": "uint256"
        }
      ],
      "name": "TokensPurchased",
      "type": "event"
    },
    {
      "anonymous": false,
      "inputs": [],
      "name": "MainSaleClosed",
      "type": "event"
    },
    {
      "constant": false,
      "inputs": [
        {
          "name": "sender",
          "type": "address"
        }
      ],
      "name": "acceptPayment",
      "outputs": [],
      "payable": true,
      "stateMutability": "payable",
      "type": "function"
    },
    {
      "constant": false,
      "inputs": [
        {
          "name": "_start",
          "type": "uint256"
        }
      ],
      "name": "setStart",
      "outputs": [],
      "payable": false,
      "stateMutability": "nonpayable",
      "type": "function"
    },
    {
      "constant": false,
      "inputs": [
        {
          "name": "_minimum",
          "type": "uint256"
        }
      ],
      "name": "setMinimum",
      "outputs": [],
      "payable": false,
      "stateMutability": "nonpayable",
      "type": "function"
    },
    {
      "constant": false,
      "inputs": [
        {
          "name": "_hardcap",
          "type": "uint256"
        }
      ],
      "name": "setHardcap",
      "outputs": [],
      "payable": false,
      "stateMutability": "nonpayable",
      "type": "function"
    },
    {
      "constant": false,
      "inputs": [
        {
          "name": "totalAltDeposits",
          "type": "uint256"
        }
      ],
      "name": "setAltDeposits",
      "outputs": [],
      "payable": false,
      "stateMutability": "nonpayable",
      "type": "function"
    },
    {
      "constant": false,
      "inputs": [
        {
          "name": "_multisigVault",
          "type": "address"
        }
      ],
      "name": "setMultisigVault",
      "outputs": [],
      "payable": false,
      "stateMutability": "nonpayable",
      "type": "function"
    },
    {
      "constant": false,
      "inputs": [
        {
          "name": "_saleOngoing",
          "type": "bool"
        }
      ],
      "name": "setSaleOngoing",
      "outputs": [],
      "payable": false,
      "stateMutability": "nonpayable",
      "type": "function"
    },
    {
      "constant": false,
      "inputs": [],
      "name": "closeSale",
      "outputs": [],
      "payable": false,
      "stateMutability": "nonpayable",
      "type": "function"
    },
    {
      "constant": false,
      "inputs": [
        {
          "name": "_token",
          "type": "address"
        }
      ],
      "name": "retrieveTokens",
      "outputs": [],
      "payable": false,
      "stateMutability": "nonpayable",
      "type": "function"
    }
  ],
  "bytecode": "0x608060405260405161001090610201565b604051809103906000f08015801561002c573d6000803e3d6000fd5b50600160006101000a81548173ffffffffffffffffffffffffffffffffffffffff021916908373ffffffffffffffffffffffffffffffffffffffff160217905550731706024467ef8c9c4648da6fc35f2c995ac79cf6600260006101000a81548173ffffffffffffffffffffffffffffffffffffffff021916908373ffffffffffffffffffffffffffffffffffffffff16021790555060006003556934f086f3b33b68400000600455678ac7230489e800006005556000600655635a12c2946007556001600860006101000a81548160ff02191690831515021790555034801561011557600080fd5b50336000806101000a81548173ffffffffffffffffffffffffffffffffffffffff021916908373ffffffffffffffffffffffffffffffffffffffff160217905550600160009054906101000a900473ffffffffffffffffffffffffffffffffffffffff1673ffffffffffffffffffffffffffffffffffffffff16638456cb596040518163ffffffff1660e01b8152600401602060405180830381600087803b1580156101c057600080fd5b505af11580156101d4573d6000803e3d6000fd5b505050506040513d60208110156101ea57600080fd5b81019080805190602001909291905050505061020e565b6119328061106d83390190565b610e508061021d6000396000f3fe6080604052600436106101145760003560e01c8063a3c2c462116100a0578063e28fa27d11610064578063e28fa27d1461046c578063ee55efee146104a7578063f2fde38b146104be578063f6a03ebf1461050f578063fc0c546a1461054a57610114565b8063a3c2c46214610343578063ac4ddd9f1461036e578063b071cbe6146103bf578063be9a6555146103ea578063d0c03f351461041557610114565b80634a88eb89116100e75780634a88eb891461021e57806352d6804d1461024957806376ae684d146102745780638da5cb5b146102b157806394c475ec1461030857610114565b806314f800831461011f5780632a9f1a79146101705780633209e9e6146101b457806339d08c2a146101ef575b61011d336105a1565b005b34801561012b57600080fd5b5061016e6004803603602081101561014257600080fd5b81019080803573ffffffffffffffffffffffffffffffffffffffff169060200190929190505050610658565b005b6101b26004803603602081101561018657600080fd5b81019080803573ffffffffffffffffffffffffffffffffffffffff1690602001909291905050506105a1565b005b3480156101c057600080fd5b506101ed600480360360208110156101d757600080fd5b810190808035906020019092919050505061072f565b005b3480156101fb57600080fd5b50610204610792565b604051808215151515815260200191505060405180910390f35b34801561022a57600080fd5b506102336107a5565b6040518082815260200191505060405180910390f35b34801561025557600080fd5b5061025e6107ab565b6040518082815260200191505060405180910390f35b34801561028057600080fd5b506102af6004803603602081101561029757600080fd5b810190808035151590602001909291905050506107b1565b005b3480156102bd57600080fd5b506102c6610827565b604051808273ffffffffffffffffffffffffffffffffffffffff1673ffffffffffffffffffffffffffffffffffffffff16815260200191505060405180910390f35b34801561031457600080fd5b506103416004803603602081101561032b57600080fd5b810190808035906020019092919050505061084c565b005b34801561034f57600080fd5b506103586108af565b6040518082815260200191505060405180910390f35b34801561037a57600080fd5b506103bd6004803603602081101561039157600080fd5b81019080803573ffffffffffffffffffffffffffffffffffffffff1690602001909291905050506108b5565b005b3480156103cb57600080fd5b506103d4610ab3565b6040518082815260200191505060405180910390f35b3480156103f657600080fd5b506103ff610ab9565b6040518082815260200191505060405180910390f35b34801561042157600080fd5b5061042a610abf565b604051808273ffffffffffffffffffffffffffffffffffffffff1673ffffffffffffffffffffffffffffffffffffffff16815260200191505060405180910390f35b34801561047857600080fd5b506104a56004803603602081101561048f57600080fd5b8101908080359060200190929190505050610ae5565b005b3480156104b357600080fd5b506104bc610b48565b005b3480156104ca57600080fd5b5061050d600480360360208110156104e157600080fd5b81019080803573ffffffffffffffffffffffffffffffffffffffff169060200190929190505050610ca9565b005b34801561051b57600080fd5b506105486004803603602081101561053257600080fd5b8101908080359060200190929190505050610d7f565b005b34801561055657600080fd5b5061055f610de2565b604051808273ffffffffffffffffffffffffffffffffffffffff1673ffffffffffffffffffffffffffffffffffffffff16815260200191505060405180910390f35b6005543410156105b057600080fd5b6004546006546003540111156105c557600080fd5b42600754111580156105e35750600860009054906101000a900460ff165b6105ec57600080fd5b61060134600354610e0890919063ffffffff16565b6003819055508073ffffffffffffffffffffffffffffffffffffffff167f8f28852646c20cc973d3a8218f7eefed58c25c909f78f0265af4818c3d4dc271346040518082815260200191505060405180910390a250565b6000809054906101000a900473ffffffffffffffffffffffffffffffffffffffff1673ffffffffffffffffffffffffffffffffffffffff163373ffffffffffffffffffffffffffffffffffffffff16146106b157600080fd5b600073ffffffffffffffffffffffffffffffffffffffff168173ffffffffffffffffffffffffffffffffffffffff1614156106eb57600080fd5b80600260006101000a81548173ffffffffffffffffffffffffffffffffffffffff021916908373ffffffffffffffffffffffffffffffffffffffff16021790555050565b6000809054906101000a900473ffffffffffffffffffffffffffffffffffffffff1673ffffffffffffffffffffffffffffffffffffffff163373ffffffffffffffffffffffffffffffffffffffff161461078857600080fd5b8060058190555050565b600860009054906101000a900460ff1681565b60065481565b60055481565b6000809054906101000a900473ffffffffffffffffffffffffffffffffffffffff1673ffffffffffffffffffffffffffffffffffffffff163373ffffffffffffffffffffffffffffffffffffffff161461080a57600080fd5b80600860006101000a81548160ff02191690831515021790555050565b6000809054906101000a900473ffffffffffffffffffffffffffffffffffffffff1681565b6000809054906101000a900473ffffffffffffffffffffffffffffffffffffffff1673ffffffffffffffffffffffffffffffffffffffff163373ffffffffffffffffffffffffffffffffffffffff16146108a557600080fd5b8060068190555050565b60035481565b6000809054906101000a900473ffffffffffffffffffffffffffffffffffffffff1673ffffffffffffffffffffffffffffffffffffffff163373ffffffffffffffffffffffffffffffffffffffff161461090e57600080fd5b60008190508073ffffffffffffffffffffffffffffffffffffffff1663a9059cbb600260009054906101000a900473ffffffffffffffffffffffffffffffffffffffff168373ffffffffffffffffffffffffffffffffffffffff166370a08231306040518263ffffffff1660e01b8152600401808273ffffffffffffffffffffffffffffffffffffffff1673ffffffffffffffffffffffffffffffffffffffff16815260200191505060206040518083038186803b1580156109cf57600080fd5b505afa1580156109e3573d6000803e3d6000fd5b505050506040513d60208110156109f957600080fd5b81019080805190602001909291905050506040518363ffffffff1660e01b8152600401808373ffffffffffffffffffffffffffffffffffffffff1673ffffffffffffffffffffffffffffffffffffffff16815260200182815260200192505050602060405180830381600087803b158015610a7357600080fd5b505af1158015610a87573d6000803e3d6000fd5b505050506040513d6020811015610a9d57600080fd5b8101908080519060200190929190505050505050565b60045481565b60075481565b600260009054906101000a900473ffffffffffffffffffffffffffffffffffffffff1681565b6000809054906101000a900473ffffffffffffffffffffffffffffffffffffffff1673ffffffffffffffffffffffffffffffffffffffff163373ffffffffffffffffffffffffffffffffffffffff1614610b3e57600080fd5b8060048190555050565b6000809054906101000a900473ffffffffffffffffffffffffffffffffffffffff1673ffffffffffffffffffffffffffffffffffffffff163373ffffffffffffffffffffffffffffffffffffffff1614610ba157600080fd5b600160009054906101000a900473ffffffffffffffffffffffffffffffffffffffff1673ffffffffffffffffffffffffffffffffffffffff1663f2fde38b6000809054906101000a900473ffffffffffffffffffffffffffffffffffffffff166040518263ffffffff1660e01b8152600401808273ffffffffffffffffffffffffffffffffffffffff1673ffffffffffffffffffffffffffffffffffffffff168152602001915050600060405180830381600087803b158015610c6357600080fd5b505af1158015610c77573d6000803e3d6000fd5b505050507f1a67d6e5b402fe0ff129cb2047b6e67ba18b8dde04bb285faed9e709d6b1eb2760405160405180910390a1565b6000809054906101000a900473ffffffffffffffffffffffffffffffffffffffff1673ffffffffffffffffffffffffffffffffffffffff163373ffffffffffffffffffffffffffffffffffffffff1614610d0257600080fd5b600073ffffffffffffffffffffffffffffffffffffffff168173ffffffffffffffffffffffffffffffffffffffff161415610d3c57600080fd5b806000806101000a81548173ffffffffffffffffffffffffffffffffffffffff021916908373ffffffffffffffffffffffffffffffffffffffff16021790555050565b6000809054906101000a900473ffffffffffffffffffffffffffffffffffffffff1673ffffffffffffffffffffffffffffffffffffffff163373ffffffffffffffffffffffffffffffffffffffff1614610dd857600080fd5b8060078190555050565b600160009054906101000a900473ffffffffffffffffffffffffffffffffffffffff1681565b600080828401905083811015610e1a57fe5b809150509291505056fea165627a7a7230582089e1936d94fa96cd7539935939ddc614aa5617c94e3405e1a6a87b8a3f3889a5002960806040526000600360146101000a81548160ff0219169083151502179055506000600360156101000a81548160ff02191690831515021790555033600360006101000a81548173ffffffffffffffffffffffffffffffffffffffff021916908373ffffffffffffffffffffffffffffffffffffffff1602179055506118a88061008a6000396000f3fe608060405234801561001057600080fd5b50600436106101215760003560e01c806366188463116100ad57806395d89b411161007157806395d89b41146104ef578063a9059cbb14610572578063d73dd623146105d8578063dd62ed3e1461063e578063f2fde38b146106b657610121565b806366188463146103a357806370a08231146104095780637d64bcb4146104615780638456cb59146104835780638da5cb5b146104a557610121565b806323b872dd116100f457806323b872dd1461024f578063313ce567146102d55780633f4ba83a146102f957806340c10f191461031b5780635c975abb1461038157610121565b806305d2035b1461012657806306fdde0314610148578063095ea7b3146101cb57806318160ddd14610231575b600080fd5b61012e6106fa565b604051808215151515815260200191505060405180910390f35b61015061070d565b6040518080602001828103825283818151815260200191508051906020019080838360005b83811015610190578082015181840152602081019050610175565b50505050905090810190601f1680156101bd5780820380516001836020036101000a031916815260200191505b509250505060405180910390f35b610217600480360360408110156101e157600080fd5b81019080803573ffffffffffffffffffffffffffffffffffffffff16906020019092919080359060200190929190505050610746565b604051808215151515815260200191505060405180910390f35b610239610838565b6040518082815260200191505060405180910390f35b6102bb6004803603606081101561026557600080fd5b81019080803573ffffffffffffffffffffffffffffffffffffffff169060200190929190803573ffffffffffffffffffffffffffffffffffffffff1690602001909291908035906020019092919050505061083e565b604051808215151515815260200191505060405180910390f35b6102dd61086d565b604051808260ff1660ff16815260200191505060405180910390f35b610301610872565b604051808215151515815260200191505060405180910390f35b6103676004803603604081101561033157600080fd5b81019080803573ffffffffffffffffffffffffffffffffffffffff16906020019092919080359060200190929190505050610935565b604051808215151515815260200191505060405180910390f35b610389610ab3565b604051808215151515815260200191505060405180910390f35b6103ef600480360360408110156103b957600080fd5b81019080803573ffffffffffffffffffffffffffffffffffffffff16906020019092919080359060200190929190505050610ac6565b604051808215151515815260200191505060405180910390f35b61044b6004803603602081101561041f57600080fd5b81019080803573ffffffffffffffffffffffffffffffffffffffff169060200190929190505050610d57565b6040518082815260200191505060405180910390f35b610469610da0565b604051808215151515815260200191505060405180910390f35b61048b610e4a565b604051808215151515815260200191505060405180910390f35b6104ad610f0e565b604051808273ffffffffffffffffffffffffffffffffffffffff1673ffffffffffffffffffffffffffffffffffffffff16815260200191505060405180910390f35b6104f7610f34565b6040518080602001828103825283818151815260200191508051906020019080838360005b8381101561053757808201518184015260208101905061051c565b50505050905090810190601f1680156105645780820380516001836020036101000a031916815260200191505b509250505060405180910390f35b6105be6004803603604081101561058857600080fd5b81019080803573ffffffffffffffffffffffffffffffffffffffff16906020019092919080359060200190929190505050610f6d565b604051808215151515815260200191505060405180910390f35b610624600480360360408110156105ee57600080fd5b81019080803573ffffffffffffffffffffffffffffffffffffffff16906020019092919080359060200190929190505050610f9a565b604051808215151515815260200191505060405180910390f35b6106a06004803603604081101561065457600080fd5b81019080803573ffffffffffffffffffffffffffffffffffffffff169060200190929190803573ffffffffffffffffffffffffffffffffffffffff169060200190929190505050611196565b6040518082815260200191505060405180910390f35b6106f8600480360360208110156106cc57600080fd5b81019080803573ffffffffffffffffffffffffffffffffffffffff16906020019092919050505061121d565b005b600360159054906101000a900460ff1681565b6040518060400160405280601181526020017f4865726f204f726967656e20546f6b656e00000000000000000000000000000081525081565b600081600260003373ffffffffffffffffffffffffffffffffffffffff1673ffffffffffffffffffffffffffffffffffffffff16815260200190815260200160002060008573ffffffffffffffffffffffffffffffffffffffff1673ffffffffffffffffffffffffffffffffffffffff168152602001908152602001600020819055508273ffffffffffffffffffffffffffffffffffffffff163373ffffffffffffffffffffffffffffffffffffffff167f8c5be1e5ebec7d5bd14f71427d1e84f3dd0314c0f7b2291e5b200ac8c7c3b925846040518082815260200191505060405180910390a36001905092915050565b60005481565b6000600360149054906101000a900460ff161561085a57600080fd5b6108658484846112f5565b509392505050565b601281565b6000600360009054906101000a900473ffffffffffffffffffffffffffffffffffffffff1673ffffffffffffffffffffffffffffffffffffffff163373ffffffffffffffffffffffffffffffffffffffff16146108ce57600080fd5b600360149054906101000a900460ff166108e757600080fd5b6000600360146101000a81548160ff0219169083151502179055507f7805862f689e2f13df9f062ff482ad3ad112aca9e0847911ed832e158c525b3360405160405180910390a16001905090565b6000600360009054906101000a900473ffffffffffffffffffffffffffffffffffffffff1673ffffffffffffffffffffffffffffffffffffffff163373ffffffffffffffffffffffffffffffffffffffff161461099157600080fd5b600360159054906101000a900460ff16156109ab57600080fd5b6109c0826000546116ae90919063ffffffff16565b600081905550610a1882600160008673ffffffffffffffffffffffffffffffffffffffff1673ffffffffffffffffffffffffffffffffffffffff168152602001908152602001600020546116ae90919063ffffffff16565b600160008573ffffffffffffffffffffffffffffffffffffffff1673ffffffffffffffffffffffffffffffffffffffff168152602001908152602001600020819055508273ffffffffffffffffffffffffffffffffffffffff167f0f6798a560793a54c3bcfe86a93cde1e73087d944c0ea20544137d4121396885836040518082815260200191505060405180910390a26001905092915050565b600360149054906101000a900460ff1681565b600080600260003373ffffffffffffffffffffffffffffffffffffffff1673ffffffffffffffffffffffffffffffffffffffff16815260200190815260200160002060008573ffffffffffffffffffffffffffffffffffffffff1673ffffffffffffffffffffffffffffffffffffffff16815260200190815260200160002054905080831115610bd7576000600260003373ffffffffffffffffffffffffffffffffffffffff1673ffffffffffffffffffffffffffffffffffffffff16815260200190815260200160002060008673ffffffffffffffffffffffffffffffffffffffff1673ffffffffffffffffffffffffffffffffffffffff16815260200190815260200160002081905550610c6b565b610bea83826116ca90919063ffffffff16565b600260003373ffffffffffffffffffffffffffffffffffffffff1673ffffffffffffffffffffffffffffffffffffffff16815260200190815260200160002060008673ffffffffffffffffffffffffffffffffffffffff1673ffffffffffffffffffffffffffffffffffffffff168152602001908152602001600020819055505b8373ffffffffffffffffffffffffffffffffffffffff163373ffffffffffffffffffffffffffffffffffffffff167f8c5be1e5ebec7d5bd14f71427d1e84f3dd0314c0f7b2291e5b200ac8c7c3b925600260003373ffffffffffffffffffffffffffffffffffffffff1673ffffffffffffffffffffffffffffffffffffffff16815260200190815260200160002060008873ffffffffffffffffffffffffffffffffffffffff1673ffffffffffffffffffffffffffffffffffffffff168152602001908152602001600020546040518082815260200191505060405180910390a3600191505092915050565b6000600160008373ffffffffffffffffffffffffffffffffffffffff1673ffffffffffffffffffffffffffffffffffffffff168152602001908152602001600020549050919050565b6000600360009054906101000a900473ffffffffffffffffffffffffffffffffffffffff1673ffffffffffffffffffffffffffffffffffffffff163373ffffffffffffffffffffffffffffffffffffffff1614610dfc57600080fd5b6001600360156101000a81548160ff0219169083151502179055507fae5184fba832cb2b1f702aca6117b8d265eaf03ad33eb133f19dde0f5920fa0860405160405180910390a16001905090565b6000600360009054906101000a900473ffffffffffffffffffffffffffffffffffffffff1673ffffffffffffffffffffffffffffffffffffffff163373ffffffffffffffffffffffffffffffffffffffff1614610ea657600080fd5b600360149054906101000a900460ff1615610ec057600080fd5b6001600360146101000a81548160ff0219169083151502179055507f6985a02210a168e66602d3235cb6db0e70f92b3ba4d376a33c0f3d9434bff62560405160405180910390a16001905090565b600360009054906101000a900473ffffffffffffffffffffffffffffffffffffffff1681565b6040518060400160405280600481526020017f4845524f0000000000000000000000000000000000000000000000000000000081525081565b6000600360149054906101000a900460ff1615610f8957600080fd5b610f9383836116e1565b5092915050565b600061102b82600260003373ffffffffffffffffffffffffffffffffffffffff1673ffffffffffffffffffffffffffffffffffffffff16815260200190815260200160002060008673ffffffffffffffffffffffffffffffffffffffff1673ffffffffffffffffffffffffffffffffffffffff168152602001908152602001600020546116ae90919063ffffffff16565b600260003373ffffffffffffffffffffffffffffffffffffffff1673ffffffffffffffffffffffffffffffffffffffff16815260200190815260200160002060008573ffffffffffffffffffffffffffffffffffffffff1673ffffffffffffffffffffffffffffffffffffffff168152602001908152602001600020819055508273ffffffffffffffffffffffffffffffffffffffff163373ffffffffffffffffffffffffffffffffffffffff167f8c5be1e5ebec7d5bd14f71427d1e84f3dd0314c0f7b2291e5b200ac8c7c3b925600260003373ffffffffffffffffffffffffffffffffffffffff1673ffffffffffffffffffffffffffffffffffffffff16815260200190815260200160002060008773ffffffffffffffffffffffffffffffffffffffff1673ffffffffffffffffffffffffffffffffffffffff168152602001908152602001600020546040518082815260200191505060405180910390a36001905092915050565b6000600260008473ffffffffffffffffffffffffffffffffffffffff1673ffffffffffffffffffffffffffffffffffffffff16815260200190815260200160002060008373ffffffffffffffffffffffffffffffffffffffff1673ffffffffffffffffffffffffffffffffffffffff16815260200190815260200160002054905092915050565b600360009054906101000a900473ffffffffffffffffffffffffffffffffffffffff1673ffffffffffffffffffffffffffffffffffffffff163373ffffffffffffffffffffffffffffffffffffffff161461127757600080fd5b600073ffffffffffffffffffffffffffffffffffffffff168173ffffffffffffffffffffffffffffffffffffffff1614156112b157600080fd5b80600360006101000a81548173ffffffffffffffffffffffffffffffffffffffff021916908373ffffffffffffffffffffffffffffffffffffffff16021790555050565b60008073ffffffffffffffffffffffffffffffffffffffff168373ffffffffffffffffffffffffffffffffffffffff16141561133057600080fd5b600160008573ffffffffffffffffffffffffffffffffffffffff1673ffffffffffffffffffffffffffffffffffffffff1681526020019081526020016000205482111561137c57600080fd5b600260008573ffffffffffffffffffffffffffffffffffffffff1673ffffffffffffffffffffffffffffffffffffffff16815260200190815260200160002060003373ffffffffffffffffffffffffffffffffffffffff1673ffffffffffffffffffffffffffffffffffffffff1681526020019081526020016000205482111561140557600080fd5b61145782600160008773ffffffffffffffffffffffffffffffffffffffff1673ffffffffffffffffffffffffffffffffffffffff168152602001908152602001600020546116ca90919063ffffffff16565b600160008673ffffffffffffffffffffffffffffffffffffffff1673ffffffffffffffffffffffffffffffffffffffff168152602001908152602001600020819055506114ec82600160008673ffffffffffffffffffffffffffffffffffffffff1673ffffffffffffffffffffffffffffffffffffffff168152602001908152602001600020546116ae90919063ffffffff16565b600160008573ffffffffffffffffffffffffffffffffffffffff1673ffffffffffffffffffffffffffffffffffffffff168152602001908152602001600020819055506115be82600260008773ffffffffffffffffffffffffffffffffffffffff1673ffffffffffffffffffffffffffffffffffffffff16815260200190815260200160002060003373ffffffffffffffffffffffffffffffffffffffff1673ffffffffffffffffffffffffffffffffffffffff168152602001908152602001600020546116ca90919063ffffffff16565b600260008673ffffffffffffffffffffffffffffffffffffffff1673ffffffffffffffffffffffffffffffffffffffff16815260200190815260200160002060003373ffffffffffffffffffffffffffffffffffffffff1673ffffffffffffffffffffffffffffffffffffffff168152602001908152602001600020819055508273ffffffffffffffffffffffffffffffffffffffff168473ffffffffffffffffffffffffffffffffffffffff167fddf252ad1be2c89b69c2b068fc378daa952ba7f163c4a11628f55a4df523b3ef846040518082815260200191505060405180910390a3600190509392505050565b6000808284019050838110156116c057fe5b8091505092915050565b6000828211156116d657fe5b818303905092915050565b600061173582600160003373ffffffffffffffffffffffffffffffffffffffff1673ffffffffffffffffffffffffffffffffffffffff168152602001908152602001600020546116ca90919063ffffffff16565b600160003373ffffffffffffffffffffffffffffffffffffffff1673ffffffffffffffffffffffffffffffffffffffff168152602001908152602001600020819055506117ca82600160008673ffffffffffffffffffffffffffffffffffffffff1673ffffffffffffffffffffffffffffffffffffffff168152602001908152602001600020546116ae90919063ffffffff16565b600160008573ffffffffffffffffffffffffffffffffffffffff1673ffffffffffffffffffffffffffffffffffffffff168152602001908152602001600020819055508273ffffffffffffffffffffffffffffffffffffffff163373ffffffffffffffffffffffffffffffffffffffff167fddf252ad1be2c89b69c2b068fc378daa952ba7f163c4a11628f55a4df523b3ef846040518082815260200191505060405180910390a3600190509291505056fea165627a7a72305820c031d469a9e2d7685b8b76c2952a6e3010006311acad2a1f67b8faa1755501210029",
  "source": "pragma solidity ^0.5.0;\n/**\n * @title Ownable\n * @dev The Ownable contract has an owner address, and provides basic authorization control\n * functions, this simplifies the implementation of \"user permissions\".\n */\ncontract Ownable {\n  address public owner;\n  /**\n   * @dev The Ownable constructor sets the original `owner` of the contract to the sender\n   * account.\n   */\n  constructor() public {\n    owner = msg.sender;\n  }\n  /**\n   * @dev Throws if called by any account other than the owner.\n   */\n  modifier onlyOwner() {\n    require(msg.sender == owner);\n    _;\n  }\n  /**\n   * @dev Allows the current owner to transfer control of the contract to a newOwner.\n   * @param newOwner The address to transfer ownership to.\n   */\n  function transferOwnership(address newOwner) external onlyOwner {\n    require(newOwner != address(0));\n    owner = newOwner;\n  }\n}\n/**\n * @title SafeMath\n * @dev Math operations with safety checks that throw on error\n */\nlibrary SafeMath {\n  function sub(uint256 a, uint256 b) internal pure returns (uint256) {\n    assert(b <= a);\n    return a - b;\n  }\n  function add(uint256 a, uint256 b) internal pure returns (uint256) {\n    uint256 c = a + b;\n    assert(c >= a);\n    return c;\n  }\n}\n/**\n * @title ERC20Basic\n * @dev Simpler version of ERC20 interface\n * @dev see https://github.com/ethereum/EIPs/issues/179\n */\ncontract ERC20Basic {\n  uint256 public totalSupply;\n  function balanceOf(address who) public view returns (uint256);\n  function transfer(address to, uint256 value) public returns (bool);\n  event Transfer(address indexed from, address indexed to, uint256 value);\n}\n/**\n * @title ERC20 interface\n * @dev see https://github.com/ethereum/EIPs/issues/20\n */\ncontract ERC20 is ERC20Basic {\n  function allowance(address owner, address spender) public view returns (uint256);\n  function transferFrom(address from, address to, uint256 value) public returns (bool);\n  function approve(address spender, uint256 value) public returns (bool);\n  event Approval(address indexed owner, address indexed spender, uint256 value);\n}\n/**\n * @title Basic token\n * @dev Basic version of StandardToken, with no allowances.\n */\ncontract BasicToken is ERC20Basic {\n  using SafeMath for uint256;\n  mapping(address => uint256) balances;\n  /**\n  * @dev transfer token for a specified address\n  * @param _to The address to transfer to.\n  * @param _value The amount to be transferred.\n  */\n  function transfer(address _to, uint256 _value) public returns (bool) {\n    balances[msg.sender] = balances[msg.sender].sub(_value);\n    balances[_to] = balances[_to].add(_value);\n    emit Transfer(msg.sender, _to, _value);\n    return true;\n  }\n  /**\n  * @dev Gets the balance of the specified address.\n  * @param _owner The address to query the the balance of.\n  * @return An uint256 representing the amount owned by the passed address.\n  */\n  function balanceOf(address _owner) public view returns (uint256 balance) {\n    return balances[_owner];\n  }\n}\n/**\n * @title Standard ERC20 token\n *\n * @dev Implementation of the basic standard token.\n * @dev https://github.com/ethereum/EIPs/issues/20\n * @dev Based on code by FirstBlood: https://github.com/Firstbloodio/token/blob/master/smart_contract/FirstBloodToken.sol\n */\ncontract StandardToken is ERC20, BasicToken {\n  mapping (address => mapping (address => uint256)) internal allowed;\n  /**\n   * @dev Transfer tokens from one address to another\n   * @param _from address The address which you want to send tokens from\n   * @param _to address The address which you want to transfer to\n   * @param _value uint256 the amount of tokens to be transferred\n   */\n  function transferFrom(address _from, address _to, uint256 _value) public returns (bool) {\n    require(_to != address(0));\n    require(_value <= balances[_from]);\n    require(_value <= allowed[_from][msg.sender]);\n    balances[_from] = balances[_from].sub(_value);\n    balances[_to] = balances[_to].add(_value);\n    allowed[_from][msg.sender] = allowed[_from][msg.sender].sub(_value);\n    emit Transfer(_from, _to, _value);\n    return true;\n  }\n  /**\n   * @dev Approve the passed address to spend the specified amount of tokens on behalf of msg.sender.\n   *\n   * Beware that changing an allowance with this method brings the risk that someone may use both the old\n   * and the new allowance by unfortunate transaction ordering. One possible solution to mitigate this\n   * race condition is to first reduce the spender's allowance to 0 and set the desired value afterwards:\n   * https://github.com/ethereum/EIPs/issues/20#issuecomment-263524729\n   * @param _spender The address which will spend the funds.\n   * @param _value The amount of tokens to be spent.\n   */\n  function approve(address _spender, uint256 _value) public returns (bool) {\n    allowed[msg.sender][_spender] = _value;\n    emit Approval(msg.sender, _spender, _value);\n    return true;\n  }\n  /**\n   * @dev Function to check the amount of tokens that an owner allowed to a spender.\n   * @param _owner address The address which owns the funds.\n   * @param _spender address The address which will spend the funds.\n   * @return A uint256 specifying the amount of tokens still available for the spender.\n   */\n  function allowance(address _owner, address _spender) public view returns (uint256 remaining) {\n    return allowed[_owner][_spender];\n  }\n  /**\n   * approve should be called when allowed[_spender] == 0. To increment\n   * allowed value is better to use this function to avoid 2 calls (and wait until\n   * the first transaction is mined)\n   * From MonolithDAO Token.sol\n   */\n  function increaseApproval(address _spender, uint _addedValue) public returns (bool success) {\n    allowed[msg.sender][_spender] = allowed[msg.sender][_spender].add(_addedValue);\n    emit Approval(msg.sender, _spender, allowed[msg.sender][_spender]);\n    return true;\n  }\n  function decreaseApproval(address _spender, uint _subtractedValue) public returns (bool success) {\n    uint oldValue = allowed[msg.sender][_spender];\n    if (_subtractedValue > oldValue) {\n      allowed[msg.sender][_spender] = 0;\n    } else {\n      allowed[msg.sender][_spender] = oldValue.sub(_subtractedValue);\n    }\n    emit Approval(msg.sender, _spender, allowed[msg.sender][_spender]);\n    return true;\n  }\n}\n/**\n * @title Mintable token\n * @dev Simple ERC20 Token example, with mintable token creation\n * @dev Issue: * https://github.com/OpenZeppelin/zeppelin-solidity/issues/120\n * Based on code by TokenMarketNet: https://github.com/TokenMarketNet/ico/blob/master/contracts/MintableToken.sol\n */\ncontract MintableToken is StandardToken, Ownable {\n  event Mint(address indexed to, uint256 amount);\n  event MintFinished();\n  bool public mintingFinished = false;\n  modifier canMint() {\n    require(!mintingFinished);\n    _;\n  }\n  /**\n   * @dev Function to mint tokens\n   * @param _to The address that will recieve the minted tokens.\n   * @param _amount The amount of tokens to mint.\n   * @return A boolean that indicates if the operation was successful.\n   */\n  function mint(address _to, uint256 _amount) public onlyOwner canMint returns (bool) {\n    totalSupply = totalSupply.add(_amount);\n    balances[_to] = balances[_to].add(_amount);\n    emit Mint(_to, _amount);\n    return true;\n  }\n  /**\n   * @dev Function to stop minting new tokens.\n   * @return True if the operation was successful.\n   */\n  function finishMinting() public onlyOwner returns (bool) {\n    mintingFinished = true;\n    emit MintFinished();\n    return true;\n  }\n}\n/**\n * @title Pausable\n * @dev Base contract which allows children to implement an emergency stop mechanism.\n */\ncontract Pausable is Ownable {\n  event Pause();\n  event Unpause();\n  bool public paused = false;\n  /**\n   * @dev modifier to allow actions only when the contract IS paused\n   */\n  modifier whenNotPaused() {\n    require(!paused);\n    _;\n  }\n  /**\n   * @dev modifier to allow actions only when the contract IS NOT paused\n   */\n  modifier whenPaused {\n    require(paused);\n    _;\n  }\n  /**\n   * @dev called by the owner to pause, triggers stopped state\n   */\n  function pause() public onlyOwner whenNotPaused returns (bool) {\n    paused = true;\n    emit Pause();\n    return true;\n  }\n  /**\n   * @dev called by the owner to unpause, returns to normal state\n   */\n  function unpause() public onlyOwner whenPaused returns (bool) {\n    paused = false;\n    emit Unpause();\n    return true;\n  }\n}\n/**\n * Pausable token\n *\n * Simple ERC20 Token example, with pausable token creation\n **/\ncontract PausableToken is StandardToken, Pausable {\n  function transfer(address _to, uint256 _value) public whenNotPaused returns (bool) {\n    super.transfer(_to, _value);\n  }\n  function transferFrom(address _from, address _to, uint256 _value) public whenNotPaused returns (bool) {\n    super.transferFrom(_from, _to, _value);\n  }\n}\n/**\n * @title HeroOrigenToken\n * @dev Hero Origen Token contract\n */\ncontract HeroOrigenToken is PausableToken, MintableToken {\n  using SafeMath for uint256;\n  string public constant name = \"Hero Origen Token\";\n  string public constant symbol = \"HERO\";\n  uint8 public constant decimals = 18;\n}\n/**\n * @title MainSale\n * @dev The main HERO token sale contract\n *\n */\ncontract MainSale is Ownable {\n  using SafeMath for uint256;\n  event TokensPurchased(address indexed buyer, uint256 ether_amount);\n  event MainSaleClosed();\n  HeroOrigenToken public token = new HeroOrigenToken();\n  address public multisigVault = 0x1706024467ef8C9C4648Da6FC35f2C995Ac79CF6;\n  uint256 public totalReceived = 0;\n  uint256 public hardcap = 250000 ether;\n  uint256 public minimum = 10 ether;\n  uint256 public altDeposits = 0;\n  uint256 public start = 1511178900; //new Date(\"November 20, 2017 11:55:00\").getTime() / 1000\n  bool public saleOngoing = true;\n  /**\n   * @dev modifier to allow token creation only when the sale IS ON\n   */\n  modifier isSaleOn() {\n    require(start <= now && saleOngoing);\n    _;\n  }\n  /**\n   * @dev modifier to prevent buying tokens below the minimum required\n   */\n  modifier isAtLeastMinimum() {\n    require(msg.value >= minimum);\n    _;\n  }\n  /**\n   * @dev modifier to allow token creation only when the hardcap has not been reached\n   */\n  modifier isUnderHardcap() {\n    require(totalReceived + altDeposits <= hardcap);\n    _;\n  }\n  constructor() public {\n    token.pause();\n  }\n  /*\n   * @dev Receive eth from the sender\n   * @param sender the sender to receive tokens.\n   */\n  function acceptPayment(address sender) public isAtLeastMinimum isUnderHardcap isSaleOn payable {\n    totalReceived = totalReceived.add(msg.value);\n    //multisigVault.transfer(address(this).balance);\n    emit TokensPurchased(sender, msg.value);\n  }\n  /**\n   * @dev Allows the owner to set the starting time.\n   * @param _start the new _start\n   */\n  function setStart(uint256 _start) external onlyOwner {\n    start = _start;\n  }\n  /**\n   * @dev Allows the owner to set the minimum purchase.\n   * @param _minimum the new _minimum\n   */\n  function setMinimum(uint256 _minimum) external onlyOwner {\n    minimum = _minimum;\n  }\n  /**\n   * @dev Allows the owner to set the hardcap.\n   * @param _hardcap the new hardcap\n   */\n  function setHardcap(uint256 _hardcap) external onlyOwner {\n    hardcap = _hardcap;\n  }\n  /**\n   * @dev Allows to set the toal alt deposit measured in ETH to make sure the hardcap includes other deposits\n   * @param totalAltDeposits total amount ETH equivalent\n   */\n  function setAltDeposits(uint256 totalAltDeposits) external onlyOwner {\n    altDeposits = totalAltDeposits;\n  }\n  /**\n   * @dev Allows the owner to set the multisig contract.\n   * @param _multisigVault the multisig contract address\n   */\n  function setMultisigVault(address _multisigVault) external onlyOwner {\n    require(_multisigVault != address(0));\n    multisigVault = _multisigVault;\n  }\n  /**\n   * @dev Allows the owner to stop the sale\n   * @param _saleOngoing whether the sale is ongoing or not\n   */\n  function setSaleOngoing(bool _saleOngoing) external onlyOwner {\n    saleOngoing = _saleOngoing;\n  }\n  /**\n   * @dev Allows the owner to close the sale and stop accepting ETH.\n   * The ownership of the token contract is transfered to this owner.\n   */\n  function closeSale() external onlyOwner {\n    token.transferOwnership(owner);\n    emit MainSaleClosed();\n  }\n  /**\n   * @dev Allows the owner to transfer ERC20 tokens to the multisig vault\n   * @param _token the contract address of the ERC20 contract\n   */\n  function retrieveTokens(address _token) external onlyOwner {\n    ERC20 foreignToken = ERC20(_token);\n    foreignToken.transfer(multisigVault, foreignToken.balanceOf(address(this)));\n  }\n  /**\n   * @dev Fallback function which receives ether\n   */\n  function() external payable {\n    acceptPayment(msg.sender);\n  }\n}",
  "sourcePath": "/home/dan/Work/Hero/herotoken-smartcontract/contracts/HeroToken.sol",
  "compiler": {
    "name": "solc",
    "version": "0.5.8+commit.23d335f2.Emscripten.clang"
  },
  "schemaVersion": "3.0.10",
  "updatedAt": "2019-06-04T15:13:13.407Z",
  "devdoc": {
    "details": "The main HERO token sale contract ",
    "methods": {
      "closeSale()": {
        "details": "Allows the owner to close the sale and stop accepting ETH. The ownership of the token contract is transfered to this owner."
      },
      "retrieveTokens(address)": {
        "details": "Allows the owner to transfer ERC20 tokens to the multisig vault",
        "params": {
          "_token": "the contract address of the ERC20 contract"
        }
      },
      "setAltDeposits(uint256)": {
        "details": "Allows to set the toal alt deposit measured in ETH to make sure the hardcap includes other deposits",
        "params": {
          "totalAltDeposits": "total amount ETH equivalent"
        }
      },
      "setHardcap(uint256)": {
        "details": "Allows the owner to set the hardcap.",
        "params": {
          "_hardcap": "the new hardcap"
        }
      },
      "setMinimum(uint256)": {
        "details": "Allows the owner to set the minimum purchase.",
        "params": {
          "_minimum": "the new _minimum"
        }
      },
      "setMultisigVault(address)": {
        "details": "Allows the owner to set the multisig contract.",
        "params": {
          "_multisigVault": "the multisig contract address"
        }
      },
      "setSaleOngoing(bool)": {
        "details": "Allows the owner to stop the sale",
        "params": {
          "_saleOngoing": "whether the sale is ongoing or not"
        }
      },
      "setStart(uint256)": {
        "details": "Allows the owner to set the starting time.",
        "params": {
          "_start": "the new _start"
        }
      },
      "transferOwnership(address)": {
        "details": "Allows the current owner to transfer control of the contract to a newOwner.",
        "params": {
          "newOwner": "The address to transfer ownership to."
        }
      }
    },
    "title": "MainSale"
  },
  "userdoc": {
    "methods": {}
  }
}